:020000040800F2
:0400000000040020D8
:0400040039010008B6
:040008005501000896
:04000C005701000890
:04001000590100088A
:040014005B01000884
:040018005D0100087E
:04001C0000000000E0
:0400200000000000DC
:0400240000000000D8
:0400280000000000D4
:04002C005F01000868
:040030006101000862
:0400340000000000C8
:040038006301000858
:04003C006501000852
:04004000670100084C
:040044006901000846
:040048006B01000840
:04004C0000000000B0
:0400500000000000AC
:040054006D01000832
:040058006F0100082C
:04005C007101000826
:040060007301000820
:040064000000000098
:040068007501000816
:04006C007701000810
:04007000790100080A
:040074000000000088
:040078007B01000800
:04007C007D010008FA
:040080007F010008F4
:0400840081010008EE
:040088000000000074
:04008C0083010008E4
:0400900085010008DE
:040094000000000068
:040098000000000064
:04009C000000000060
:0400A000000000005C
:0400A4000000000058
:0400A8000000000054
:0400AC0087010008C0
:0400B00089010008BA
:0400B4008B010008B4
:0400B8008D010008AE
:0400BC008F010008A8
:1001900030B54FF0FF3114480160002213494A6026
:1001A0008A604FF6FF73CB604FF48020086148618E
:1001B0004FF055348C61CA6101250D48456082605D
:1001C000C3604FF4803505616FF0010545618461BE
:0401D000C2610360A5
:1001D4000A689207026826BF5208520042F00102E0
:0201E4000260B7
:0201E600F5E73B
:0401E8001C000240B5
:0401EC0000800B4044
:0401F00000000B40C0
:0201380003487A
:04013A0080F30888BE
:02013E00034874
:020140008047F6
:02014200034870
:02014400004772
:0C01480000040020C1000008C5000008F1
:02015400FEE7C4
:02015600FEE7C2
:02015800FEE7C0
:02015A00FEE7BE
:02015C00FEE7BC
:02015E00FEE7BA
:02016000FEE7B8
:02016200FEE7B6
:02016400FEE7B4
:02016600FEE7B2
:02016800FEE7B0
:02016A00FEE7AE
:02016C00FEE7AC
:02016E00FEE7AA
:02017000FEE7A8
:02017200FEE7A6
:02017400FEE7A4
:02017600FEE7A2
:02017800FEE7A0
:02017A00FEE79E
:02017C00FEE79C
:02017E00FEE79A
:02018000FEE798
:02018200FEE796
:02018400FEE794
:02018600FEE792
:02018800FEE790
:02018A00FEE78E
:02018C00FEE78C
:02018E00FEE78A
:0200C000704787
:0200C4001348DF
:0200C6001449DB
:0200C800491CD1
:0200CA0007E04D
:0200CC001CC84E
:0200CE005B1CB9
:0400D00014F8015BC4
:0400D40002F8015BD2
:0200D8009A424A
:0200DA00F9D15A
:0200DC00884258
:0200DE00F5D15A
:0200E0000E48C8
:0200E2000F49C4
:0200E400491CB5
:0200E6000024F4
:0200E80005E031
:0200EA000CC840
:0200EC005B1C9B
:0400EE0002F8014BC8
:0200F2009A4230
:0200F400FBD13E
:0200F60088423E
:0200F800F7D13E
:0200FA000A4CAE
:0200FC000A4DAB
:0200FE006D1C77
:02010000764641
:0201020001E01A
:0201040004CC29
:02010600904720
:02010800AC4207
:02010A00FBD127
:02010C000748A2
:04010E00DFF820E016
:020112000047A4
:1001140000000000FFFFFFFF00000000FFFFFFFFE3
:1001240000000000FFFFFFFF9101000835010008F7
:02013400FEE7E4
:00000001FF
