:020000040800F2
:1000000000800020F50200083703000839030008CB
:100010003B0300083D0300083F0300080000000008
:100020000000000000000000000000004103000884
:1000300043030008000000004503000847030008D0
:10004000490300084B0300084D03000800000000AE
:10005000000000004F03000851030008530300088C
:10006000550300080000000057030008590300086A
:100070005B030008000000008903000885030008F6
:100080006103000863030008000000006503000826
:1000900067030008000000000000000000000000EE
:1000A00000000000000000000000000069030008DC
:1000B0006B0300086D0300086F030008710300085C
:1000C00008B54FF40070012100F044F840F201201F
:1000D000012100F03FF840F20220012100F03AF83F
:1000E00040F20320012100F035F808BD08B500F00A
:1000F00085F800F083F800F081F800F07FF808BD83
:100100000023C4F20203DA6942F48042DA61032276
:10011000C0F200125A620023C4F2070340F2E73231
:100120005A609A609A6D42F002029A65DA6842F06B
:100130000102DA604FF46143CEF200034FF48042D3
:100140001A6070470023C4F202030022C2F2E032B8
:10015000DA61704738B504460D46C0F3072000F059
:1001600027F80346012D19D1426864B2012000FA34
:1001700004F10A435A609A6800229A60DD680D43D0
:10018000DD601D6945EA0141196159695A61996942
:100190008440A04008439861D969DA6138BD00BF46
:1001A00008B562B6FFF7CEFFFFF7AAFF08BD00BF94
:1001B0000138052817D8DFE800F0171C03080C11D8
:1001C0004FF40040C4F20B0070470020C4F20C0052
:1001D00070474FF40040C4F20C0070474FF40040E9
:1001E000C4F20E00704770474FF40040C4F20A009A
:1001F00070470020C4F20B00704700BF0A224EF681
:10020000602106E0013B9BB2002BFBD1013A92B288
:100210000AB10B46F6E770470023C4F20203DA681E
:10022000D96801F001014FF41062C0F23D024FF4B1
:100230009053C0F27A03002908BF1A460023C4F283
:100240000203DB6813F0040F1FBF0023C4F2020394
:100250005B68C3F3032318BF03FB02220023C4F22D
:100260000203DB68C3F30123012B0DD013B1022B72
:1002700019D020E040F20003C2F200034FF4905284
:10028000C0F27A021A6070470023C4F20203DB68EE
:1002900040F20001C2F20001C3F303130133B2FBC9
:1002A000F3F20A60704740F20003C2F200034FF419
:1002B00000421A60704740F20003C2F2000349F6A0
:1002C00040421A60704700BF08B50023C4F2020321
:1002D0001022C0F60002DA61DA680022DA6059689A
:1002E0005A6099689A6019691A6159695A61FFF7E9
:1002F00093FF08BD0649074A074B00F015F8074968
:10030000074A084B00F010F8FFF7DEFF00F032F864
:10031000AC0300080000002004000020B003000827
:1003200004000020040000209B1A03DD043BC85891
:10033000D050FBDC7047FEE7FEE7FEE7FEE7FEE796
:10034000FEE7FEE7FEE7FEE7FEE7FEE7FEE7FEE785
:10035000FEE7FEE7FEE7FEE7FEE7FEE7FEE7FEE775
:10036000FEE7FEE7FEE7FEE7FEE7FEE7FEE7FEE765
:10037000FEE700BF08B5FFF713FFFFF7A1FEFFF789
:10038000B5FEFCE7704700BF0023C4F2070300225C
:100390001A605A6D22F002025A654FF46143CEF2A0
:0C03A00000034FF48042C3F88021704736
:0403AC0000127A00C1
:04000005080002F5F8
:00000001FF
