:020000040800F2
:10000000008000206D020008AF020008B102000865
:10001000B3020008B5020008B702000800000000A3
:10002000000000000000000000000000B90200080D
:10003000BB02000800000000BD020008BF0200086B
:10004000C1020008C3020008C50200080000000049
:1000500000000000C7020008C9020008CB02000827
:10006000CD02000800000000CF020008D102000805
:10007000D302000800000000D5020008D7020008E3
:10008000D9020008DB02000800000000DD020008C1
:10009000DF02000800000000000000000000000077
:1000A000000000000000000000000000E102000865
:1000B000E3020008E5020008E7020008E902000880
:1000C00008B54FF40070012100F012F840F2012051
:1000D000012100F00DF840F20220012100F008F8A3
:1000E00040F20320012100F003F808BD704700BF73
:1000F00038B504460D46C0F3072000F03FF803462C
:10010000012D19D1426864B2012000FA04F10A43BA
:100110005A609A6800229A60DD680D43DD601D69AF
:1001200045EA0141196159695A6199698440A040C1
:1001300008439861D969DA6138BD00BF0D4B4FF0B3
:10014000FC62DA61DA6942F48042DA614FF080726F
:100150005A6203F5A02340F2E7325A6001229A6006
:1001600002219965DA604FF48042034B1A6062B64F
:10017000704700BF0000024000E100E001380528A0
:100180000CD8DFE800F00C0E03050709064870479D
:10019000064870470648704706487047704706484B
:1001A00070470648704700BF00800B4000000C40BD
:1001B00000800C4000800E4000800A4000000B4090
:1001C0001B4BDA68DA6802F001021A4B1A49002A5E
:1001D00014BF0A461A46164BDB6813F0040F05D00D
:1001E000134B5B68C3F3032303FB0222104BDB6852
:1001F000C3F30123012B07D013B1022B0ED012E061
:100200000C4A0E4B1A607047094BDB68C3F30313AB
:100210000133B2FBF3F2094B1A6070474FF400420E
:10022000064B1A60704749F64042044B1A6070470B
:100230000000024000127A0000093D00000000208A
:1002400008B5084B084ADA61DA680022DA605968B2
:100250005A6099689A6019691A6159695A61FFF779
:10026000AFFF08BD00000240100000080649074A21
:10027000074B00F015F80749074A084B00F010F843
:10028000FFF7DEFF00F032F8FC020008000000205B
:1002900004000020000300080400002004000020E7
:1002A0009B1A03DD043BC858D050FBDC7047FEE7C7
:1002B000FEE7FEE7FEE7FEE7FEE7FEE7FEE7FEE716
:1002C000FEE7FEE7FEE7FEE7FEE7FEE7FEE7FEE706
:1002D000FEE7FEE7FEE7FEE7FEE7FEE7FEE7FEE7F6
:1002E000FEE7FEE7FEE7FEE7FEE700BF08B5FFF723
:0C02F00025FFFFF7E5FEFFF7F9FEFCE735
:0402FC0000127A0072
:040000050800026D80
:00000001FF
