:020000040800F2
:1000000000800020C90200080B0300080D0300084F
:100010000F0300081103000813030008000000008C
:1000200000000000000000000000000015030008B0
:100030001703000800000000190300081B03000854
:100040001D0300081F030008210300080000000032
:100050000000000023030008250300082703000810
:1000600029030008000000002B0300082D030008EE
:100070002F030008000000003103000833030008CC
:1000800035030008370300080000000039030008AA
:100090003B0300080000000000000000000000001A
:1000A0000000000000000000000000003D03000808
:1000B0003F0300084103000843030008450300080C
:1000C00008B54FF40070012100F04AF840F2012019
:1000D000012100F045F840F20220012100F040F833
:1000E00040F20320012100F03BF808BD08B500F004
:1000F00087F800F085F800F083F800F081F8024BF3
:100100001A68024B1A6008BD0400002000000B4072
:100110000C4BDA6942F48042DA610B4A5A6203F509
:10012000A02340F2E7325A609A609A6D42F00202D0
:100130009A65DA6842F00102DA604FF48042034BBC
:100140001A607047000002400300000100E100E077
:10015000014A024BDA6170470000E02300000240D0
:1001600038B504460D46C0F3072000F027F80346D3
:10017000012D19D1426864B2012000FA04F10A434A
:100180005A609A6800229A60DD680D43DD601D693F
:1001900045EA0141196159695A6199698440A04051
:1001A00008439861D969DA6138BD00BF08B562B605
:1001B000FFF7CEFFFFF7ACFF08BD00BF01380528F1
:1001C0000CD8DFE800F00C0E03050709064870475D
:1001D000064870470648704706487047704706480B
:1001E00070470648704700BF00800B4000000C407D
:1001F00000800C4000800E4000800A4000000B4050
:100200000A224EF6602106E0013B9BB2002BFBD197
:10021000013A92B20AB10B46F6E770471B4BDA6817
:10022000DA6802F001021A4B1A49002A14BF0A4682
:100230001A46164BDB6813F0040F05D0134B5B68AE
:10024000C3F3032303FB0222104BDB68C3F3012338
:10025000012B07D013B1022B0ED012E00C4A0E4B2B
:100260001A607047094BDB68C3F303130133B2FB19
:10027000F3F2094B1A6070474FF40042064B1A60C4
:10028000704749F64042044B1A6070470000024034
:1002900000127A0000093D000000002008B5084B5C
:1002A000084ADA61DA680022DA6059685A609968A7
:1002B0009A6019691A6159695A61FFF7AFFF08BD61
:1002C00000000240100000080649074A074B00F0F2
:1002D00015F80749074A084B00F010F8FFF7DEFF52
:1002E00000F032F85803000800000020040000204D
:1002F0005C03000804000020040000209B1A03DDBA
:10030000043BC858D050FBDC7047FEE7FEE7FEE731
:10031000FEE7FEE7FEE7FEE7FEE7FEE7FEE7FEE7B5
:10032000FEE7FEE7FEE7FEE7FEE7FEE7FEE7FEE7A5
:10033000FEE7FEE7FEE7FEE7FEE7FEE7FEE7FEE795
:10034000FEE7FEE7FEE700BF08B5FFF72FFFFFF768
:08035000B7FEFFF7CBFEFCE74E
:0403580000127A0015
:04000005080002C924
:00000001FF
