:020000040800F2
:1000000000800020510300089303000895030008B6
:1000100097030008990300089B03000800000000F4
:100020000000000000000000000000009D03000828
:100030009F03000800000000A1030008A3030008BC
:10004000A5030008A7030008A9030008000000009A
:1000500000000000AB030008AD030008AF03000878
:10006000B103000800000000B3030008B503000856
:10007000B7030008000000002D0200086902000814
:10008000BD030008BF03000800000000C103000812
:10009000C303000800000000000000000000000092
:1000A000000000000000000000000000C503000880
:1000B000C7030008C9030008CB030008CD030008EC
:1000C00008B54FF40070012100F046F840F201201D
:1000D000012100F041F840F20220012100F03CF83B
:1000E00040F20320012100F037F808BD08B562B6E0
:1000F00000F08EF800F08CF800F08AF800F088F834
:1001000008BD00BF0C4B4FF0FF32DA610B4A5A6258
:1001100003F5A02300225A60094A9A609A6D42F0C2
:1001200002029A65DA6842F00102DA604FF4804216
:10013000044B1A60704700BF00000240030000013A
:100140003F420F0000E100E0014A024BDA617047D4
:100150000000E0230000024038B504460D4600F4DC
:100160007F4000F027F80346012D19D1E4B2426820
:10017000012000FA04F10A435A609A6800229A604A
:10018000DD680D43DD601D6945EA0141196159696A
:100190005A6199698440A04008439861D969DA613D
:1001A00038BD00BF08B562B6FFF7CEFFFFF7AAFF64
:1001B00008BD00BFB0F5407F11D006DCB0F5807FF0
:1001C00016D0B0F5007F15D011E0B0F5A06F0AD0C1
:1001D000B0F5C06F09D0B0F5806F08D101E00648D6
:1001E0007047064870470648704706487047704792
:1001F000054870470548704700800B4000000C40E0
:1002000000800C4000800E4000800A4000000B403F
:100210000A224EF6602106E0013B9BB2002BFBD187
:10022000013A92B20AB10B46F6E770470F220A4B29
:100230001A600A4B1A68C2F10F021A60084B0022BA
:100240001A605A6D22F002025A654FF48042054B43
:10025000C3F88021704700BF00000B400000002061
:100260000000074000E100E00F220A4B1A600A4B31
:100270001A68C2F10F021A60084B00221A605A6D08
:1002800022F002025A654FF40042054BC3F8802168
:10029000704700BF00000B400000002000800740B6
:1002A00000E100E01B4BDA68DA6802F001021A4B49
:1002B0001A49002A14BF0A461A46164BDB6813F087
:1002C000040F05D0134B5B68C3F3032303FB022227
:1002D000104BDB68C3F30123012B07D013B1022BB2
:1002E0000ED012E00C4A0E4B1A607047094BDB68C7
:1002F000C3F303130133B2FBF3F2094B1A607047E7
:100300004FF40042064B1A60704749F64042044BD6
:100310001A6070470000024000127A0000093D0098
:100320000400002008B5084B084ADA61DA680022A8
:10033000DA6059685A6099689A6019691A6159694E
:100340005A61FFF7AFFF08BD00000240100000082F
:100350000649074A074B00F015F80749074A084BBA
:1003600000F010F8FFF7DEFF00F032F8E0030008BD
:100370000000002008000020E8030008080000201A
:10038000080000209B1A03DD043BC858D050FBDC5A
:100390007047FEE7FEE7FEE7FEE7FEE7FEE7FEE763
:1003A000FEE7FEE7FEE7FEE7FEE7FEE7FEE7FEE725
:1003B000FEE7FEE7FEE7FEE7FEE7FEE7FEE7FEE715
:1003C000FEE7FEE7FEE7FEE7FEE7FEE7FEE700BF2B
:1003D00008B5FFF7E7FEFFF773FEFFF787FEFCE7C0
:0803E0000F00000000127A007A
:04000005080003519B
:00000001FF
