:020000040800F2
:1000000000800020090500084B0500084D05000888
:100010004F050008510500085305000800000000C6
:10002000000000000000000000000000550500086E
:100030005705000800000000590500085B0500088E
:100040005D0500085F05000861050008000000006C
:10005000000000006305000865050008670500084A
:1000600069050008000000006B0500086D05000828
:100070006F05000800000000B1010008ED01000854
:1000800075050008770500080000000079050008E4
:100090007B050008000000000000000000000000D8
:1000A0000000000000000000000000007D050008C6
:1000B0007F05000881050008830500088505000804
:1000C00038B540F20520002100F0AEF840F20620DD
:1000D000002100F0A9F840F20150002100F0A4F83E
:1000E00040F20350002100F09FF80824012520462B
:1000F000294600F099F801340C2CF8D105484FF648
:10010000FF7100F023F900F02FF900F02DF900F055
:100110002BF938BD00000B4008B540F2052000F077
:10012000F3F8C0F101014FF4007000F0C7F840F29D
:10013000062000F0E9F8C0F1010140F2012000F0D2
:10014000BDF840F2015000F0DFF8C0F1010140F2CB
:10015000022000F0B3F840F2035000F0D5F8C0F1EF
:10016000010140F2032000F0A9F808BD0C4B4FF04C
:10017000FF32DA610B4A5A6203F5A02300225A606B
:10018000094A9A609A6D42F002029A65DA6842F072
:100190000102DA604FF48042044B1A60704700BFDE
:1001A00000000240030000013F420F0000E100E0B8
:1001B0000F220A4B1A600A4B1A68C2F10F021A602A
:1001C000084B00221A605A6D22F002025A654FF461
:1001D0008042054BC3F88021704700BF00000B40F0
:1001E000000000200000074000E100E00F220A4B61
:1001F0001A600A4B1A68C2F10F021A60084B0022FB
:100200001A605A6D22F002025A654FF40042054B03
:10021000C3F88021704700BF00000B4000000020A1
:100220000080074000E100E070B505460E4610F47E
:100230007F4F06D000F47F4000F0A4F80446E8B2F7
:1002400005E000F0CDF80446284600F0EFF8012E56
:1002500019D16368012101FA00F213436360A368B6
:100260000023A360E5681543E560256945EA02427D
:10027000226162696361A269884081401143A16182
:10028000E269E36170BDC6B9636800236360A26878
:10029000A360E568012202FA00F10D43E5602569DB
:1002A00009040D432561656929436161A169904095
:1002B00082400A43A261E269E36170BD70B5044601
:1002C0000D4610F47F4F06D000F47F4000F05AF83E
:1002D0000646E0B205E000F083F80646204600F04E
:1002E000A5F8012D06D13368012404FA00F0184363
:1002F000306070BD35B93368012404FA00F023EA98
:100300000000306070BD00BF38B5044610F47F4F68
:1003100006D000F47F4000F035F80546E0B205E075
:1003200000F05EF80546204600F080F82B680122B8
:1003300002FA00F41C4205D12B681C40B4F1FF3FC7
:1003400002D138BD012038BD002038BD01607047A2
:1003500008B5034A034BDA6162B6FFF707FF08BD31
:100360000000E023000002400A224EF6602106E071
:10037000013B9BB2002BFBD1013A92B20AB10B4672
:10038000F6E77047B0F5407F11D006DCB0F5807F0E
:1003900016D0B0F5007F15D011E0B0F5A06F0AD0EF
:1003A000B0F5C06F09D0B0F5806F08D101E0064804
:1003B00070470648704706487047064870477047C0
:1003C000054870470548704700800B4000000C400E
:1003D00000800C4000800E4000800A4000000B406E
:1003E00007280ADD12280ADD15280ADD1D280ADD86
:1003F00023280ADD2B280ADD704706487047064887
:1004000070470648704706487047064870470648D8
:10041000704700BF00800A4000000B4000800B4086
:1004200000000C4000800C4000800E40072813DDC7
:10043000122801DC08387047152801DC1238704793
:100440001D2801DC16387047232801DC1E38704750
:100450002B2801DC24387047704700BF1B4BDA683B
:10046000DA6802F001021A4B1A49002A14BF0A4640
:100470001A46164BDB6813F0040F05D0134B5B686C
:10048000C3F3032303FB0222104BDB68C3F30123F6
:10049000012B07D013B1022B0ED012E00C4A0E4BE9
:1004A0001A607047094BDB68C3F303130133B2FBD7
:1004B000F3F2094B1A6070474FF40042064B1A6082
:1004C000704749F64042044B1A60704700000240F2
:1004D00000127A0000093D000400002008B5084B16
:1004E000084ADA61DA680022DA6059685A60996865
:1004F0009A6019691A6159695A61FFF7AFFF08BD1F
:1005000000000240100000080649074A074B00F0AF
:1005100015F80749074A084B00F010F8FFF7DEFF0F
:1005200000F032F8980500080000002008000020C4
:10053000A005000808000020080000209B1A03DD29
:10054000043BC858D050FBDC7047FEE7FEE7FEE7EF
:10055000FEE7FEE7FEE7FEE7FEE7FEE7FEE7FEE773
:10056000FEE7FEE7FEE7FEE7FEE7FEE7FEE7FEE763
:10057000FEE7FEE7FEE7FEE7FEE7FEE7FEE7FEE753
:10058000FEE7FEE7FEE700BF08B5FFF7E1FEFFF775
:0805900097FDFFF7C1FDFCE738
:080598000F00000000127A00C0
:0400000508000509E1
:00000001FF
