:020000040800F2
:1000000000800020090300084B0300084D0300088E
:100010004F030008510300085303000800000000CC
:100020000000000000000000000000005503000870
:100030005703000800000000590300085B03000894
:100040005D0300085F030008610300080000000072
:100050000000000063030008650300086703000850
:1000600069030008000000006B0300086D0300082E
:100070006F030008000000009D03000899030008BA
:1000800075030008770300080000000079030008EA
:100090007B030008000000000000000000000000DA
:1000A0000000000000000000000000007D030008C8
:1000B0007F0300088103000883030008850300080C
:1000C00008B54FF40070012100F044F840F201201F
:1000D000012100F03FF840F20220012100F03AF83F
:1000E00040F20320012100F035F808BD08B500F00A
:1000F0008FF800F08DF800F08BF800F089F808BD5B
:100100000023C4F20203DA6942F48042DA61032276
:10011000C0F200125A620023C4F2070340F2E73231
:100120005A609A609A6D42F002029A65DA6842F06B
:100130000102DA604FF46143CEF200034FF48042D3
:100140001A6070470023C4F202030022C2F2E032B8
:10015000DA61704738B505460C46002000F026F8F5
:100160000346012C19D1EDB24268012000FA05F1D5
:100170000A435A609A6800229A60DC680C43DC608B
:100180001C6944EA0141196159695A6199698540BC
:10019000A84008439861D969DA6138BD08B562B6EC
:1001A000FFF7D0FFFFF7ACFF08BD00BFB0F5407F01
:1001B00011D006DCB0F5807F21D0B0F5007F23D0D0
:1001C0001CE0B0F5A06F0FD0B0F5C06F11D0B0F546
:1001D000806F13D104E04FF40040C4F20B0070476D
:1001E0000020C4F20C0070474FF40040C4F20C0031
:1001F00070474FF40040C4F20E00704770474FF450
:100200000040C4F20A0070470020C4F20B0070479F
:100210000A224EF6602106E0013B9BB2002BFBD187
:10022000013A92B20AB10B46F6E770470023C4F2D6
:100230000203DA68D96801F001014FF41062C0F2DC
:100240003D024FF49053C0F27A03002908BF1A46CA
:100250000023C4F20203DB6813F0040F1FBF002366
:10026000C4F202035B68C3F3032318BF03FB02223B
:100270000023C4F20203DB68C3F30123012B0DD07A
:1002800013B1022B19D020E040F20003C2F20003A8
:100290004FF49052C0F27A021A6070470023C4F201
:1002A0000203DB6840F20001C2F20001C3F3031352
:1002B0000133B2FBF3F20A60704740F20003C2F26E
:1002C00000034FF400421A60704740F20003C2F28C
:1002D000000349F640421A60704700BF08B500238A
:1002E000C4F202031022C0F60002DA61DA680022CA
:1002F000DA6059685A6099689A6019691A6159698F
:100300005A61FFF793FF08BD0649074A074B00F003
:1003100015F80749074A084B00F010F8FFF7DEFF11
:1003200000F032F8C00300080000002004000020A4
:10033000C403000804000020040000209B1A03DD11
:10034000043BC858D050FBDC7047FEE7FEE7FEE7F1
:10035000FEE7FEE7FEE7FEE7FEE7FEE7FEE7FEE775
:10036000FEE7FEE7FEE7FEE7FEE7FEE7FEE7FEE765
:10037000FEE7FEE7FEE7FEE7FEE7FEE7FEE7FEE755
:10038000FEE7FEE7FEE700BF08B5FFF707FFFFF750
:1003900097FEFFF7ABFEFCE7704700BF0023C4F2F7
:1003A000070300221A605A6D22F002025A654FF4C8
:1003B0006143CEF200034FF48042C3F880217047BE
:0403C00000127A00AD
:0400000508000309E3
:00000001FF
