:020000040800F2
:10000000680600205D01000865010008670100081E
:10001000690100086B0100086D0100080000000084
:100020000000000000000000000000006F01000858
:10003000710100080000000073010008750100084C
:100040007701000877010008770100080000000030
:100050000000000077010008770100087701000820
:100060007701000800000000770100087701000810
:100070007701000800000000770100087701000800
:1000800077010008770100080000000077010008F0
:1000900077010008000000000000000000000000E0
:1000A00000000000000000000000000077010008D0
:1000B0007701000877010008770100087701000840
:1000C00000F002F800F03AF80AA090E8000C824430
:1000D0008344AAF10107DA4501D100F02FF8AFF20D
:1000E000090EBAE80F0013F0010F18BFFB1A43F016
:1000F00001031847FC0200001C030000103A24BF53
:1001000078C878C1FAD8520724BF30C830C144BF7C
:1001100004680C60704700000023002400250026BE
:10012000103A28BF78C1FBD8520728BF30C148BF5A
:100130000B6070471FB51FBD10B510BD00F021F951
:100140001146FFF7F7FF00F061F800F03FF903B444
:10015000FFF7F2FF03BC00F043F9000009488047B5
:1001600009480047FEE7FEE7FEE7FEE7FEE7FEE799
:10017000FEE7FEE7FEE7FEE704480549054A064BB1
:100180007047000037030008C10000086800002025
:100190006806002068020020680200204FF03070DE
:1001A0004049C8610F2040494860002088604FF6F0
:1001B000FF70C8604FF4DE0008616FF00F00486107
:1001C0004FF0553088610020C86138494860886028
:1001D0004FF6FF70C8604FF48020086148614FF00F
:1001E000553088610020C8613149486088604FF609
:1001F000FF70C8604FF420202C49086148614FF01F
:1002000055302B4988610020C8617047FFF7C6FF51
:1002100047E02748006810F0080F06D02248006821
:1002200020F008002049086005E01F48006840F001
:1002300008001D4908601C48006810F0400F06D0F7
:100240001948006820F001001749086005E01648C9
:10025000006840F00100144908601348006810F07D
:10026000200F06D01048006820F004000E490860F6
:1002700005E00D48006840F004000B4908600C4898
:10028000006810F0020F06D00748006820F0020056
:100290000549086005E00448006840F00200024992
:1002A0000860B6E70000024000000B4000800B40F1
:1002B00000800C4030B52D4CE46804F00204022CA0
:1002C00001D12B4800E02A48284CE46814F0010FC3
:1002D00000D040080146254CE46804F00404042CD6
:1002E00005D1224C6468C4F30324631C59431F4C9A
:1002F000E468C4F3012424B1012C06D0022C13D1EC
:100300000DE01B4C1B4D2C6013E0184CE468C4F34B
:100310000314641CB1FBF4F2164C226009E04FF4A4
:100320000044144D2C6004E049F64044114D2C600B
:1003300000BF00BF30BD00B50F480C49C86108467A
:10034000C0680020C8600846406800204860084631
:10035000806800208860084600690020086108461F
:10036000406900204861FFF7A5FF00BD0000024082
:1003700000127A000000002010000008704770474B
:100380007047754600F028F8AE46050069465346AA
:1003900020F00700854618B020B5FFF7EDFEBDE858
:1003A00020404FF000064FF000074FF000084FF0DC
:1003B000000B21F00701AC46ACE8C009ACE8C0096D
:1003C000ACE8C009ACE8C0098D4670470446AFF3FD
:1003D00000802046FFF7BBFE004870470400002065
:1003E00001491820ABBEFEE726000200704700005E
:1003F000100400080000002004000000FC000008B9
:10040000140400080400002064060000180100081D
:0404100000127A005C
:040000050800015D91
:00000001FF
