:020000040800F2
:10000000680600205D01000865010008670100081E
:10001000690100086B0100086D0100080000000084
:100020000000000000000000000000006F01000858
:10003000710100080000000073010008750100084C
:100040007701000877010008770100080000000030
:100050000000000077010008770100087701000820
:100060007701000800000000770100087701000810
:100070007701000800000000770100087701000800
:1000800077010008770100080000000077010008F0
:1000900077010008000000000000000000000000E0
:1000A00000000000000000000000000077010008D0
:1000B0007701000877010008770100087701000840
:1000C00000F002F800F03AF80AA090E8000C824430
:1000D0008344AAF10107DA4501D100F02FF8AFF20D
:1000E000090EBAE80F0013F0010F18BFFB1A43F016
:1000F000010318476C0200008C020000103A24BF74
:1001000078C878C1FAD8520724BF30C830C144BF7C
:1001100004680C60704700000023002400250026BE
:10012000103A28BF78C1FBD8520728BF30C148BF5A
:100130000B6070471FB51FBD10B510BD00F0D9F89A
:100140001146FFF7F7FF00F029F800F0F7F803B4C5
:10015000FFF7F2FF03BC00F0FBF8000009488047FE
:1001600009480047FEE7FEE7FEE7FEE7FEE7FEE799
:10017000FEE7FEE7FEE7FEE704480549054A064BB1
:1001800070470000A7020008C100000868000020B6
:100190006806002068020020680200204FF0FF304F
:1001A0001D49C86100201D49486088604FF6FF70F6
:1001B000C8604FF48020086148614FF05530886175
:1001C0000020C861012016494860002088604FF671
:1001D000FF70C860401C08616FF0010048614FF07B
:1001E000553088610020C8614FF6FF70086011E04B
:1001F0000A48006810F0040F06D00948006820F093
:1002000001000749086005E00548006840F001006A
:1002100003490860ECE700000000024000800B404A
:1002200000000B4030B52D4CE46804F00204022CB1
:1002300001D12B4800E02A48284CE46814F0010F53
:1002400000D040080146254CE46804F00404042C66
:1002500005D1224C6468C4F30324631C59431F4C2A
:10026000E468C4F3012424B1012C06D0022C13D17C
:100270000DE01B4C1B4D2C6013E0184CE468C4F3DC
:100280000314641CB1FBF4F2164C226009E04FF435
:100290000044144D2C6004E049F64044114D2C609C
:1002A00000BF00BF30BD00B50F480C49C86108460B
:1002B000C0680020C86008464068002048600846C2
:1002C00080680020886008460069002008610846B0
:1002D000406900204861FFF7A5FF00BD0000024013
:1002E00000127A00000000201000000870477047DC
:1002F0007047754600F028F8AE460500694653463B
:1003000020F00700854618B020B5FFF735FFBDE89F
:1003100020404FF000064FF000074FF000084FF06C
:10032000000B21F00701AC46ACE8C009ACE8C009FD
:10033000ACE8C009ACE8C0098D4670470446AFF38D
:1003400000802046FFF703FF0048704704000020AC
:1003500001491820ABBEFEE72600020070470000EE
:10036000800300080000002004000000FC000008DA
:10037000840300080400002064060000180100083F
:0403800000127A00ED
:040000050800015D91
:00000001FF
