:020000040800F2
:0400000000040020D8
:0400040039010008B6
:040008005501000896
:04000C005701000890
:04001000590100088A
:040014005B01000884
:040018005D0100087E
:04001C0000000000E0
:0400200000000000DC
:0400240000000000D8
:0400280000000000D4
:04002C005F01000868
:040030006101000862
:0400340000000000C8
:040038006301000858
:04003C00991300080C
:04004000650100084E
:040044006701000848
:040048006901000842
:04004C0000000000B0
:0400500000000000AC
:040054006B01000834
:040058006D0100082E
:04005C006F01000828
:040060007101000822
:040064000000000098
:040068007301000818
:04006C007501000812
:04007000770100080C
:040074000000000088
:040078007901000802
:04007C007B010008FC
:040080007D010008F6
:040084007F010008F0
:040088000000000074
:04008C0081010008E6
:0400900083010008E0
:040094000000000068
:040098000000000064
:04009C000000000060
:0400A000000000005C
:0400A4000000000058
:0400A8000000000054
:0400AC0085010008C2
:0400B00087010008BC
:0400B40089010008B6
:0400B8008B010008B0
:0400BC008D010008AA
:0C13CC002DE9F0470C46054691468028AC
:0413D80001DA402CCA
:0213DC0000DB34
:0213DE007DE0B0
:0813E000402295FBF2F63046B5
:1013E800FFF7FEF8A5EB8615082294FBF2FAA4EBAA
:0E13F800CA06C6F108044AF0B802D7B2384659
:0C140600FFF709F945F04002D0B2804623
:04141200FFF703F9E4
:08141600FFF786F90546384690
:06141E00FFF7FDF8404657
:0A142400FFF7FAF8D54F3A68012AE5
:04142E0008D0022AB6
:0414320008D0032AB1
:041436000BD0042AA9
:02143A000FD0D1
:04143C00BAB94A46A9
:0214400003E0C7
:021442004A4618
:0214440006E0C0
:0414460089F0FF0228
:04144A00B2402A433F
:02144E0003E0B9
:0414500089F0FF021E
:04145400B2406A40F8
:02145800D0B210
:02145A0006E0AA
:0E145C00FF2323412B4009FA06F21343D8B2B6
:04146A00FFF703F98C
:0E146E00AEB30AF1010242F0B802D0B28246DB
:06147C00FFF7CEF8404628
:04148200FFF7CBF8AD
:08148600FFF74EF90546504640
:06148E00FFF7C5F840461F
:08149400FFF7C2F83A68012AD3
:04149C0008D0022A48
:0414A00008D0032A43
:0414A4000BD0042A3B
:0214A8000FD063
:0414AA00BAB94A463B
:0214AE0003E059
:0214B0004A46AA
:0214B20006E052
:0414B40089F0FF02BA
:0414B80022412A4360
:0214BC0003E04B
:0414BE0089F0FF02B0
:0414C20022416A4019
:0214C600D0B2A2
:0214C80006E03C
:0E14CA00FF22B240154049FA04F21543E8B281
:0414D800FFF7CCF856
:0414DC00BDE8F087F0
:1014E000F0B582B08DF804008DF80510A54B1C688E
:1014F0002468E508B4EBC5041C6824681ABFE40836
:10150000641CE4081D686D686C431D68ED6804FB8D
:10151000025700971C682468E4081D682B68DD08E2
:04152000B3EBC50361
:0415240000D0641C73
:0215280000269B
:02152A0019E0C6
:02152C00002598
:02152E0011E0CA
:101530001F687B6803FB0653009FDA5D9DF805106A
:0E15400001EBC603D9B29DF804002B18D8B2F7
:06154E00FFF73DFF6D1CDC
:081554008B4B1F687F68BD424C
:04155C00E8D3761C3E
:02156000A642A1
:04156200E3D302B01D
:02156600F0BDD6
:0A156800F0B5154606460F460024B4
:021572000AE08D
:10157400625D834B1B681B7904FB0363D8B2394655
:06158400FFF7ACFF641C40
:04158A00635D002B72
:02158E00F1D199
:02159000F0BDAC
:101592002DE9F04F81B015468B468DF80000774C4F
:0615A20020688146012BC8
:0415A8001DD0022B25
:0415AC004AD0032BF3
:0615B00000F0AF80002BEB
:1015B60040F0DC80042020605F469DF80040002655
:0215C6000AE039
:1015C800725D6E480068017906FB0140C0B2394679
:0615D800FFF782FF761C04
:0415DE00705D002814
:0215E200F1D145
:0215E400C5E060
:0E15E600042020602F46D8469DF800400026C5
:0215F4000AE00B
:1015F600F25D62480068007906FB0040C0B24146D1
:06160600FFF76BFF761CEC
:04160C00F05D002865
:06161000F1D14FF4167049
:06161600FFF7C6FE0026EE
:02161C000CE0E0
:10161E005948006801799DF8000006FB0100C0B230
:04162E0059462022D7
:06163200FFF755FF761CD6
:02163800284642
:06163A00FEF7A8FD864248
:02164000EDD3E8
:0216420096E030
:0E16440004272760A8465F469DF80040002658
:021652000BE0AB
:1016540016F808204A480068007906FB0040C0B22A
:02166400394605
:06166600FFF73BFF761CBC
:06166C0016F8080000283A
:10167200EFD10120424C2060A8465F469DF8004011
:02168200002640
:021684000BE079
:1016860016F808203E480068007906FB0040C0B204
:021696003946D3
:06169800FFF722FF761CA3
:06169E0016F80800002808
:1016A400EFD10320354C2060A8465F469DF80040EA
:0216B40000260E
:0216B6000BE047
:1016B80016F8082031480068007906FB0040C0B2DF
:0216C8003946A1
:0616CA00FFF709FF761C8A
:0616D00016F808000028D6
:0616D600EFD14FF4966015
:1016DC00FFF763FE0427274C27609DF80040002687
:0216EC000AE012
:1016EE00725D24480768397906FB0140C0B259463D
:0616FE00FFF7EFFE761C71
:04170400705D0028EC
:04170800F1D1962065
:04170C00FFF74BFE9A
:021710002FE0C8
:0E171200042020602C46DA469DF80080002658
:021720000AE0DD
:10172200325D17480768387906FB0080C0B251461F
:06173200FFF7D5FE761C56
:04173800305D0028F8
:06173C00F1D14FF416701C
:10174200FFF730FE0BF101049DF8000000F10108E3
:0217520000266F
:021754000AE0A9
:10175600725DE1B20A480768387906FB0080C0B2BC
:06176600FFF7BBFE761C3C
:04176C00705D002884
:02177000F1D1B5
:08177200034CC4F8009001B023
:04177A00BDE8F08F47
:041780003C520020B7
:04178400705200207F
:0801A000705200207352002090
:0802400070B50C46054680284C
:0402480028D2402C4C
:06024C0026D2AE09304687
:1002520000F0C9F9A5EB8615E308A4EBC30201245B
:08026200944043F0B802D0B251
:0C026A0000F0D7F945F04002D6B2304653
:0402760000F0D1F9CA
:0C027A0000F054FA0546074A1268012AF9
:0202860002D0A4
:0402880012B925433F
:02028C0000E090
:02028E006540C9
:020290003046F6
:0602920000F0C3F9E8B220
:0402980000F0ECF98D
:02029C0070BD33
:0402A0003C520020AC
:0A02A4002DE9F04F82B05D1A141A24
:0202AE0003D17A
:0202B00015B97E
:0402B200FFF7C5FF8E
:0202B60040E026
:0A02B8004FF00108C146C246002CB9
:0802C20003D564424FF0FF3840
:0202CA0002E050
:0602CC000CB94FF0000820
:0202D200002DFD
:0802D40002D56D424FF0FF3925
:0202DC00AC4232
:0C02DE0004DA4FF0000A27462C463D468B
:0E02EA002D442F1BA7EB040B00900191002662
:0402F80000980199D0
:0602FC00FFF7A0FFA6427F
:060302001ADABAF1000F47
:0803080003D00098404400906E
:0203100002E009
:060312000199494401912C
:02031800002FB4
:04031A0001D52F4496
:02031E000AE0F3
:060320005F44BAF1000F7A
:0803260003D001994944019143
:02032E0002E0EB
:060330000098404400901B
:02033600761C33
:02033800DEE7FE
:02033A0002B00F
:04033C00BDE8F08F99
:100340002DE9F04F82B089468246002415465300BD
:04035000C3F10306EC
:0C03540005EB090B594604EB0A0738467C
:10036000FFF76EFFC5F1000808EB09010091384660
:0E037000FFF766FF674207EB0A000190009955
:08037E00FFF75FFF01985946EB
:10038600FFF75BFF04EB090B594605EB0A000090EB
:0A039600FFF753FF4F44009839466B
:0A03A000FFF74EFFD04440463946F7
:0803AA00FFF749FF40465946E8
:0603B200FFF745FFAC421D
:0403B8000CDA012E2C
:0803BC0003DA06EB84039E1D29
:0203C40004E053
:0A03C600631B06EB83060A366D1E6A
:0203D000641CAB
:0203D200BFE783
:0203D40002B075
:0403D600BDE8F08FFF
:1003DC000D48016821F470510160416841F06001E1
:1003EC0041600A48016821F030010160416841F028
:1003FC00040141600648016821F0CC0101604168AC
:06040C0041F00A0141600D
:02041200704731
:0404140008000B4091
:0404180008800B400D
:04041C0008800C4008
:0604200010B585B00020BC
:0C042600012100AB43F82010401C052809
:08043200F8D31B4800688007A5
:06043A0001D30020009038
:06044000194A1068800655
:0604460001D3002001902B
:06044C0017490868400793
:0604520001D3002002901E
:040458001068C00662
:06045C0001D30020039013
:040462000868C0075F
:0604660001D30020049008
:04046C00002100204B
:0A04700053F820201144401C052819
:02047A00F9D3B4
:04047C0009B900209A
:020480000DE08D
:0204820002294D
:0404840001D306207A
:0204880009E089
:02048A00002050
:06048C0053F820100129C5
:0404920001D1401C38
:0204960002E082
:04049800401C0528D7
:02049C00F6D395
:02049E0005B0A7
:0204A00010BD8D
:0404A40000800B4089
:0404A80000000B4005
:0404AC0000800C4080
:10023000000010180000101000002018000020100E
:1004B00010B500F03F0211490B681A430A60C243AD
:1004C00002F03F030A689A430A60040904F00C0230
:1004D0000B490B681A430A60E04300F00C000A68FD
:0404E00082430A60E9
:0204E40010BD49
:1004E6000648006800F00C010348006800F03F0071
:0404F60000EB011006
:0204FA00704749
:0404FC0000800A4032
:0405000000800E4029
:10050400A848016841F400710160416841F4007138
:040514004160002121
:0E051800026822F400720260491CB1F5FA7FFD
:0A052600F7D3016841F40071016091
:02053000704712
:1005320010B59D4B58686FF30B005860986840F0F7
:100542003F009860586940F6AA2108435861D8686C
:1005520040F03F00D860934A906820F47F1090608A
:10056200D06840F4F060D060906940F42A10906145
:10057200506840F4F06050608D48816809090901B3
:100582008160C16841F00301C160816941F00A01E3
:100592008161416841F00301416085494C6824F062
:1005A200F0044C608C6844F00C048C604C6944F09C
:1005B200A0044C61CC6844F00C04CC60146844F490
:1005C200806414600268520852000260026842F0BD
:1005D200020202601868800980011860086820F031
:0405E2000C000860A1
:0205E60010BD46
:1005E800C20180326E490B6813430B60D24302F498
:1005F800C0730A689A430A604A6842F4C0724A6043
:020608000F21C0
:04060A0000BF491EC6
:06060E00FCD10149086067
:0206140070472D
:040618003852002034
:0E061C0010B5644C216841F0020121600F21ED
:04062A0000BF491EA6
:10062E00FCD15E490A6842F03F020A605E490A68E0
:10063E0042F00C020A6058490A6822F480620A608D
:08064E00216849084900216000
:06065600FFF72BFF0F214E
:04065C0000BF491E74
:0C066000FCD1216821F0020121600F2173
:04066C0000BF491E64
:02067000FCD1BB
:0206720010BDB9
:0E06740010B54E4C216841F0020121600F21AB
:0406820000BF491E4E
:10068600FCD148490A6842F03F020A6048490A68B4
:1006960042F00C020A6042490A6822F480620A604B
:0806A600216841F0010121600F
:0606AE00FFF7FFFE0F2123
:0406B40000BF491E1C
:0C06B800FCD1216821F0020121600F211B
:0406C40000BF491E0C
:0206C800FCD163
:0206CA0010BD61
:0E06CC0000B53848016841F0020101600F21BD
:0406DA0000BF491EF6
:1006DE00FCD132490A68920992010A6032490A68CD
:1006EE0022F00C020A602C490A6842F480620A6009
:0A06FE0001684908490001600F215E
:0407080000BF491EC7
:0A070C00FCD1016821F00201016038
:06071600FFF7E6FE0F21D3
:04071C0000BF491EB3
:04072000FCD1C0B296
:0207240000BD16
:0E07260030B5214C206840F0020020600F2505
:0407340000BF6D1E77
:10073800FCD11C4801688909890101601B480168CE
:1007480021F00C0101601648016841F480610160E4
:0C075800206840F0010020600F252846BA
:0407640000BF401E74
:0A076800FCD1206820F002002060A0
:06077200FFF7B8FE284667
:0407780000BF401E60
:0C077C00FCD1206820F00200206028461C
:0407880000BF401E50
:0A078C00FCD1206840F0020020605C
:06079600FFF7A6FE294654
:04079C0000BF491E33
:0407A000FCD1C0B216
:0207A40030BD66
:0407A80000000B4002
:0407AC0004800A407B
:0407B00000800B407A
:0407B40004800E406F
:0207B80030B55A
:0407BA00FFF7BAFE8D
:0607BE00FFF7A1FE00247C
:0207C4002046CD
:0407C600FFF70FFF2B
:0407CA0000F045F8FE
:0607CE00FFF77DFF054668
:0607D40000F040F8802D4A
:0407DA00F6D03F20F6
:0407DE00FFF71DFF05
:0407E20000F039F8F2
:0607E600FFF771FF05465C
:0607EC0000F034F8202D9E
:0407F200F6D0C0205D
:0807F600FFF711FF641C022C47
:0207FE00E1D345
:0208000030BD09
:0408020070B50026A7
:0208060030467A
:04080800FFF7EEFE0A
:04080C0000F024F8DC
:06081000FFF75CFF044647
:0608160000F01FF8802C29
:04081C00F6D03E20B4
:06082000FFF7FCFE402082
:06082600FFF7F9FE0025BA
:06082C0045F0B800C0B267
:06083200FFF7F3FE0024B5
:0208380000209E
:08083A00FFF71BFF641C402CBA
:06084200F9D36D1C082D26
:04084800F0D33F208A
:08084C00FFF7E6FE761C022E08
:02085400D7D3F8
:0208560070BD73
:020858000F206F
:04085A0000BF401E7D
:02085E00FCD1CB
:020860007047DF
:0801A800385200203F520020F4
:1008640015488168090A09028160C16841F00F01D5
:10087400C160816941F0AA01816101680909090126
:0A0884000160416841F00F0141607E
:02088E007047B1
:100890000A490A680848036863F303020A600168AA
:1008A00011F0004114BF01210021026852000260D2
:0408B000114301608F
:0208B40070478B
:0408B800405200208A
:0408BC0000000B40ED
:0801B0004052002043520020E0
:1065C000C4EBFF20EFE5F0E5F5EEE4E020E220EC9F
:1065D000E5EDFE00EDE0E6ECE8F2E520EAEDEEEFB9
:0765E000EAF32053454C00D3
:1051C800680000004C00000060000000760000004D
:1051D800FFFFFFFFFFFFFFFFFFFFFFFFFFFFF803DA
:1051E800FFFFFFFFFFFFF803FFFFFFFFFFFFF803CD
:1051F800FFFFFFFFFFFFFFF3FFFFFFFFFFFFFFF3CF
:10520800FFFFFFFFFFFFFFF3FFFFFFFFFFFFFFF3BE
:10521800FFFFFFFFFFFFFFFFFFFFFFFFFFFFF80399
:10522800FFFFFFFFFFFFF803FFFFFFFFFFFFF9F39B
:10523800FFFFFFFFFFFFF9F3FFFFFFFFFFFFF8E3AB
:10524800FFFFFFFFFFFFF807FFFFFFFFFFFFFC0760
:10525800FFFFFFFFFFFFFE0FFFFFFFFFFFFFFFFF47
:10526800FFFFFFFFFFFFF803FFFFFFFFFFFFF8034C
:10527800FFFFFFFFFFFFF803FFFFFFFFFFFFFC3FFC
:10528800FFFFFFFFFFFFFF0FFFFFFC07FFFFFFC749
:10529800FFFF80007FFFFF0FFFFE00001FFFFC3FA6
:1052A800FFF8000007FFF803FFF007FC01FFF80311
:1052B800FFC03FFF80FFF803FF80FFFFE07FFFFF95
:1052C800FF03FFFFF03FFF9FFE07FFFFFC1FFF9F4D
:1052D800FE0FFFFFFE0FFF9FFC1FFFFFFF07FF9F53
:1052E800F83FFFFFFF87FFFFF07FFFFFFF83FFFF10
:1052F800F0FC000000C3FC67F0FC000000E1F86768
:10530800E1FC000000E1F823E1FC000000E0F333D9
:10531800C3FC000000F0F333C3FFFFFFF0F0F90314
:10532800C3FFFFFFF0F0F907C3FF800010F8FD8FFF
:10533800C7F9800011F87FFFC7F9800011F87BFFDB
:10534800C7F99FFF11F878FFC7F99FFF11F8787F19
:10535800C7F99FFF11F87C03C7F98FFE31F87F0367
:10536800C3F9C7F831F8FC03C3F9E000F1F0F87F9E
:10537800C3F9F003F1F0F9FFC3F9FFFFF1F0FBFF08
:10538800E1F1FFFFE1E0FFFFE1F1800023E1FC67CD
:10539800F0F3800023E1F867F0F3800023C3F823DB
:1053A800F073C03FE383F333F833FC0FE387F33341
:1053B800FC33FF03E307F903FC33FFC0E20FF907EF
:1053C800FE33FFC1E21FFD8FFF33FF0FE23FFFFFF8
:1053D800FFB3F83FE27FF9FFFFF3C00042FFF9FF98
:1053E800FFE3000043FFF9FFFFE7000043FFF80376
:1053F800FFE7FFFFC7FFF803FFE7FFFFC7FFF9FF5E
:10540800FFE7FFF9C7FFF9FFFFE67319C7FFF9FFC9
:10541800FFE67319C7FFFFFFFFE67319C7FFFFFF1A
:10542800FFE67339C7FFF803FFE66339FFFFF803A8
:10543800FFE6633FFFFFF933FFCE67FFFFFFF93356
:10544800FFCEFFFFFFFFF933FFFFFFFFFFFFF93339
:10545800FFFFFFFFFFFFF933FFFFFFFFFFFFFFFF26
:10546800FFFFFFFFFFFFFFFFFFFFFFFFFFFFF80347
:10547800FFFFFFFFFFFFF803FFFFFFFFFFFFF8033A
:10548800FFFFFFFFFFFFFC3FFFFFFFFFFFFFFF0FD7
:10549800FFFFFFFFFFFFFFC7FFFFFFFFFFFFFF0F3C
:1054A800FFFFFFFFFFFFFC3FFFFFFFFFFFFFF803CA
:1054B800FFFFFFFFFFFFF803FFFFFFFFFFFFF803FA
:1054C800FFFFFFFFFFFFFFFFFFFFFFFFFFFFFFFFE4
:1054D800FFFFFFFFFFFFFC67FFFFFFFFFFFFF8670E
:1054E800FFFFFFFFFFFFF823FFFFFFFFFFFFF3337F
:1054F800FFFFFFFFFFFFF333FFFFFFFFFFFFF9038E
:10550800FFFFFFFFFFFFF907FFFFFFFFFFFFFD8F13
:10551800FFFFFFFFFFFFFFFFFFFFE060607FFFFF70
:10552800FFFFE060607FFFFFFFFFE060607FFFFF3D
:10553800FFFFE060607FFFFFFFFFE060607FFFFF2D
:10554800FFFFE060607FFFFFFFFFFFFFFFFFFFFF40
:10555800FFFFFFFFFFFFFFFFFFFFE060607FFFFF30
:10556800FFFFE060607FFFFFFFFFE060607FFFFFFD
:10557800FFFFE060607FFFFFFFFFE060607FFFFFED
:10558800FFFFE060607FFFFFFFFFFFFFFFFFFFFF00
:10559800FFFFFFFFFFFFFFFFFFFFE060607FFFFFF0
:1055A800FFFFE060607FFFFFFFFFE060607FFFFFBD
:1055B800FFFFE060607FFFFFFFFFE060607FFFFFAD
:1055C800FFFFE060607FFFFFFFFFE03FFFFFFFFF9F
:1055D800FFFFE00FFFFFFFFFFFFFE003FFFFFFFFFD
:1055E800FFFFF000FFFFFFFFFFFFFC003FFFFFFF93
:1055F800FFFFFF000FFFFFFFFFFFFFC007FFFFFFD9
:10560800FFFFFFF001FFFFFFFFFFFFFC007FFFFF31
:10561800FFFFFFFF007FFFFFFFFFFFFC007FFFFF93
:10562800FFFFFFF000FFFFFFFFFFFFE003FFFFFFAB
:10563800FFFFFF800FFFFFFFFFFFFE003FFFFFFFA1
:10564800FFFFF800FFFFFFFFFFFFE003FFFFFFFF83
:10565800FFFFE00FFFFFFFFFFFFFE03FFFFFFFFF40
:10566800FFFFE000007FFFFFFFFFE000007FFFFF7C
:10567800FFFFE000007FFFFFFFFFE000007FFFFF6C
:10568800FFFFE000007FFFFFFFFFE000007FFFFF5C
:10569800FFFFFFFFFFFFFFFFFFFFFFFFFFFFFFFF12
:1056A800FFFFFFFFFFFFFFFFFFFFE060607FFFFFDF
:1056B800FFFFE060607FFFFFFFFFE060607FFFFFAC
:1056C800FFFFE060607FFFFFFFFFE060607FFFFF9C
:1056D800FFFFE060607FFFFFFFFFE060607FFFFF8C
:1056E800FFFFE060607FFFFFFFFFE060607FFFFF7C
:1056F800FFFFE060607FFFFFFFFFE060607FFFFF6C
:10570800FFFFE070E07FFFFFFFFFE079E07FFFFF32
:10571800FFFFF03FC0FFFFFFFFFFF01F80FFFFFF0D
:10572800FFFFF80001FFFFFFFFFFF80001FFFFFF89
:10573800FFFFFC0003FFFFFFFFFFFE00077FFFFFE7
:10574800FFFFFF800E7FFFFFFFFFFFE07C7FFFFF73
:10575800FFFFFFFFF87FFFFFFFFFFFFFE07FFFFF77
:10576800FFFFFFFF807FFFFFFFFFFFFC00FFFFFF42
:10577800FFFFFFC001FFFFFFFFFFFF0003FFFFFF69
:10578800FFFFFE000FFFFFFFFFFFFC007FFFFFFF93
:10579800FFFFF807FFFFFFFFFFFFF01FFFFFFFFFFF
:1057A800FFFFF03FFFFFFFFFFFFFE07FFFFFFFFF6F
:1057B800FFFFE07FFFFFFFFFFFFFE07FFFFFFFFF2F
:1057C800FFFFE000007FFFFFFFFFE000007FFFFF1B
:1057D800FFFFE000007FFFFFFFFFE000007FFFFF0B
:1057E800FFFFE000007FFFFFFFFFE000007FFFFFFB
:1057F800FFFFFFFFFFFFFFFFFFFFFFFFFFFFFFFFB1
:10580800FFFFFFFFFFFFFFFFFFFFFFFFFFFFFFFFA0
:10581800FFFFE07FFFFFFFFFFFFFE07FFFFFFFFFCE
:10582800FFFFE07FFFFFFFFFFFFFE07FFFFFFFFFBE
:10583800FFFFE07FFFFFFFFFFFFFE07FFFFFFFFFAE
:10584800FFFFE07FFFFFFFFFFFFFE07FFFFFFFFF9E
:10585800FFFFE000007FFFFFFFFFE000007FFFFF8A
:10586800FFFFE000007FFFFFFFFFE000007FFFFF7A
:10587800FFFFE000007FFFFFFFFFE000007FFFFF6A
:10588800FFFFE07FFFFFFFFFFFFFE07FFFFFFFFF5E
:10589800FFFFE07FFFFFFFFFFFFFE07FFFFFFFFF4E
:1058A800FFFFE07FFFFFFFFFFFFFE07FFFFFFFFF3E
:1058B800FFFFE07FFFFFFFFFFFFFE07FFFFFFFFF2E
:1058C800FFFFFFFFFFFFFFFFFFFFFFFFFFFFF801E5
:1058D800FFFFFFFFFFFFF801FFFFF8E38FFFFC7FEB
:1058E800FFFFF8E38FFFFE1FFFFFF8E38FFFFF873F
:1058F800FFFFF8E38FFFFF07FFFFF8E38FFFFE1FAF
:10590800FFFFF8E38FFFFC7FFFFFF8E38FFFF8014D
:10591800FFFFF8E38FFFF801FFFFF8E38FFFFFFFBA
:10592800FFFFF8E38FFFFFFF800000E38E00180100
:10593800800000E38E001801800000E38E0018014B
:10594800801FFFFFFF801E3F80FFFFFFFFF01C7FCF
:1059580083FFFFFFFFF81CFF838001C38E1C180123
:10596800860003838E0E1801860007838E061801B1
:105978008C000F038E071FFF8C001E038E071FFF6E
:105988008C003C038E071F018C0078038E071E01D4
:105998008C00E0038E071C3F8C00C0038E07187F25
:1059A8008C0180038E0718FF8C0300038E071801F3
:1059B8008C0700038E0718018C0E00038E07180150
:1059C8008C0C1F838E071FFF8C1C7FC38E071FFF45
:1059D8008C39FFC38E071FE18C3FFFC38E071F0161
:1059E8008C7FC3838E071C078C3E07838E0718E7BE
:1059F8008C000F038E0718E78C001E038E071C0708
:105A08008C003C038E071F018C0078038E071FE172
:105A18008C00F0038E071FFF8C01C0038E071FFF49
:105A28008C0780038E0718018C0E00038E0718015F
:105A38008C1E0F038E0718018C3FFF838E071F3FB4
:105A48008C1FFFC38E071F3F8C0003C38E071F3FA9
:105A58008C0000E38E0718018C0000E38E07180104
:105A68008C0000E38E071FFF8C0000E38E071FFFEA
:105A78008E0000E38E061FF9860000E38E061E09DD
:105A8800870000E38E0E1C09838000E38E3C1C090E
:105A980081FFFFFFFFF818F9807FFFFFFFE018F98B
:105AA800800000E38E0018F9800000E38E001801E2
:105AB800800000E38E001801800000E38E001FF9CB
:105AC800FFFFF8E38FFFFFFFFFFFF8E38FFFFFFF04
:105AD800FFFFF8E38FFFF801FFFFF8E38FFFF801FE
:105AE800FFFFF8E38FFFF8E7FFFFF8E38FFFF8E722
:105AF800FFFFF8E38FFFF8C7FFFFFFFFFFFFFC0F73
:105B0800FFFFFFFFFFFFFC0FFFFFFFFFFFFFFE1F71
:105B1800FFFFFFFFFFFFFFFFFFFFFFFFFFFFFFFF8D
:105B2800FFFFFFFFFFFFFFFFFFFFF80000FFFFFF82
:105B3800FFFFF80000FFFFFFFFFFF80000FFFFFF77
:105B4800FFFFF80000FFFFFFFFFFF80000FFFFFF67
:105B5800FFFFF80000FFFFFFFFFFF8787FFFFFFF60
:105B6800FFFFF8787FFFFFFFFFFFF8787FFFFFFF59
:105B7800FFFFF8307FFFFFFFFFFFF8007FFFFFFF09
:105B8800FFFFF800FFFFFFFFFFFFFC00FFFFFFFF25
:105B9800FFFFFC01FFFFFFFFFFFFFE03FFFFFFFF0B
:105BA800FFFFFF8FFFFFFFFFFFFFFFFFFFFFFFFF6D
:105BB800FFFFFFFFFFFFFFFFFFFFF80000FFFFFFF2
:105BC800FFFFF80000FFFFFFFFFFF80000FFFFFFE7
:105BD800FFFFF80000FFFFFFFFFFF80000FFFFFFD7
:105BE800FFFFFFE1FFFFFFFFFFFFFFE3FFFFFFFFF7
:105BF800FFFFFFC3FFFFFFFFFFFFFFC3FFFFFFFF25
:105C0800FFFFFFC000FFFFFFFFFFFFC000FFFFFF18
:105C1800FFFFFFC000FFFFFFFFFFFFC000FFFFFF08
:105C2800FFFFFFE000FFFFFFFFFFFFF800FFFFFFA0
:105C3800FFFFFFFFFFFFFFFFFFFFFFDFFFFFFFFF8C
:105C4800FFFFFFC7FF87FFFFFFFFFFC0FF87FFFFC3
:105C5800FFFFFFC03FC7FFFFFFFFFFC00F87FFFF2A
:105C6800FFFFFFC00107FFFFFFFFFFF80007FFFF6F
:105C7800FFFFFFFF0007FFFFFFFFFFFFC00FFFFF52
:105C8800FFFFFFFE001FFFFFFFFFFFF0007FFFFF8A
:105C9800FFFFFFC001FFFFFFFFFFFFC00FFFFFFF78
:105CA800FFFFFFC07FFFFFFFFFFFFFC3FFFFFFFFF7
:105CB800FFFFFFCFFFFFFFFFFFFFFFFFFFFFFFFF1C
:105CC800FFFFFFC3FFFFFFFFFFFFFFC3FFFFFFFF54
:105CD800FFFFFE0001FFFFFFFFFFFC0000FFFFFFCB
:105CE800FFFFFC0000FFFFFFFFFFFC0000FFFFFFBE
:105CF800FFFFF80000FFFFFFFFFFFFC3F0FFFFFFFC
:105D0800FFFFFFC3F0FFFFFFFFFFFFC3F0FFFFFF31
:105D1800FFFFFFFFFFFFFFFFFFFFFFFFFFFFFFFF8B
:105D2800FFFFFFF83FFFFFFFFFFFFFE007FFFFFF59
:105D3800FFFFFFC7E7FFFFFFFFFFFF8833FFFFFFFE
:105D4800FFFFFF1389FFFFFFFFFFFF26E9FFFFFFAC
:105D5800FFFFFE6C25FFFFFFFFFFFE49B5FFFFFFBA
:105D6800FFFFFCCB25FFFFFFFFFFFFCA69FFFFFF17
:105D7800FFFFFFC9C9FFFFFFFFFFFFE413FFFFFF9E
:105D8800FFFFFFF3E3FFFFFFFFFFFFF807FFFFFF42
:105D9800FFFFFFFC3FFFFFFFFFFFFFFFFFFFFFFFCE
:105DA800FFFFFFFFFFFFFFFFFFFFFFFFFFFFFFFFFB
:105DB800FFFFFFC000FFFFFFFFFFFFC000FFFFFF67
:105DC800FFFFFFC000FFFFFFFFFFFFC000FFFFFF57
:105DD800FFFFFFC000FFFFFFFFFFFFE1FFFFFFFF27
:105DE800FFFFFFE3FFFFFFFFFFFFFFC3FFFFFFFF13
:105DF800FFFFFFC1FFFFFFFFFFFFFFC000FFFFFF27
:105E0800FFFFFFC000FFFFFFFFFFFFC000FFFFFF16
:105E1800FFFFFFE000FFFFFFFFFFFFF000FFFFFFB6
:0608C0002DE9F043814622
:0C08C600FFF79CFF00218A4801600C46EF
:1008D2004FEA89063A4971584908C1F13F0500209B
:0C08E200FFF781FE44F0B800C0B2804671
:0A08EE00FFF795FE45F04000C0B290
:0608F800FFF790FE00274F
:0208FE0055E0C3
:02090000402D88
:0609020009D100250120CF
:06090800FFF76EFE404601
:06090E00FFF785FE40200A
:04091400FFF782FE69
:04091800B9F1010F21
:06091C000DD0B9F1020F3D
:0609220010D0B9F1030F33
:0609280013D0B9F1000F2D
:0A092E003BD1234901EBC701103152
:020938000EE0CF
:0A093A00224800EBC70000F56C71C5
:0209440008E0C9
:0A0946001F4800EBC70000F5C26176
:0209500002E0C3
:060952001C4800EBC70188
:10095800605C400100F04002605C42EAC012605CEA
:10096800C00000F020000243605C400000F010006E
:100978000243605C430803F008000243605CC3085C
:1009880003F004000243605C430903F002000243E1
:0C099800605C42EAD010C0F1FF00C0B269
:0409A400FFF766FEF5
:0409A8006D1C7F1C27
:0609AC00044971588F425E
:0609B200A5D3641C082C13
:0209B8008BD3DF
:0409BA00BDE8F08321
:0409C000403E002095
:0409C400904100203E
:0809C80010B501230D4A9360F4
:0209D00000E045
:0209D20000BF64
:0409D4001368002B79
:0A09D800FBD04FF48173D3600128B7
:0E09E2000DD1800040EA01235360064C2360D3
:0209F00000E025
:0209F20000BF44
:0409F4001368062B53
:0809F800FBD34FF48373D360BD
:020A000010BD27
:040A040000000240AC
:040A08004452002034
:040A0C0010B50446D7
:020A10000EE0F6
:020A1200641E60
:060A1400FFF704FD0128BC
:040A1A0001D10020E6
:020A1E0010BD09
:020A20000021B3
:0C0A220000BF00BF00BF00BF491CFF293F
:020A2E00F8D3FB
:020A3000002C98
:040A3200EED10120E0
:020A360010BDF1
:060A380000B500200021C2
:0C0A3E00FFF7C3FF4FF0FF3128480160B4
:040A4A00FFF7B5FEFF
:040A4E00FFF709FFA6
:040A5200FFF7C3FCEB
:020A560037E087
:020A580000207C
:080A5A00FFF731FF42F6FF70C7
:040A6200FFF7D3FFC8
:040A660098B3012020
:080A6A00FFF729FF42F6FF70BF
:040A7200FFF7CBFFC0
:040A760058B302204F
:080A7A00FFF721FF41F6FF70B8
:040A8200FFF7C3FFB8
:040A860018B303207E
:080A8A00FFF719FF41F6FF70B0
:040A9200FFF7BBFFB0
:020A9600D8B1D5
:100A9800FFF7B3FE042116480160124912480160AD
:060AA80006201621114A90
:0C0AAE0000F05BFD104A143209202221E8
:080ABA0000F055FD43F6FF704A
:040AC200FFF7A3FF98
:020AC60018B165
:060AC800FFF7AAFC012863
:020ACE00C3D192
:060AD000FFF7A6FC002860
:020AD600FBD152
:040AD80000F006F92B
:040ADC0000F01AF913
:040AE00000F078F9B1
:020AE40000BD53
:040AE8001C000240AC
:040AEC00101C0020BA
:040AF0007052002020
:040AF400C0650008D1
:040AF8003C5200204C
:0801B8004452002047520020D0
:0C01D000403E00209F4A0020C85100085B
:1065E80020202020202020202020202020202020A3
:1065F8002020202020202020202020202020202093
:10660800202020202020202000C3F0E0F4E8EAE049
:1066180000CFF0E8ECE8F2E8E2FB00C8EDE4E8EAD5
:10662800E0F2EEF0FB00C2EEE7E2F0E0F200D1E2C9
:10663800E5F2EEE4E8EEE4FB00C2EAEBFEF7E8F28E
:10664800FC00C3EBE0E2EDEEE520ECE5EDFE00D268
:10665800E5EAF1F200D2E5F5EDEEEBEEE3E8E8006D
:10666800CE20EFF0EEE3F0E0ECECE5004C444D2DED
:1066780053595354454D5300C7C0CE20CFCACA20E2
:10668800CCE8EBE0EDE4F000CECECE20D4E8F0ECA0
:10669800E020D4C8D2CECD00CECECE20CCDDCBD219
:1066A80000D8F0E8F4F2FB00D1F2E8EBFC00CAED08
:0566B800E8E6EAE00045
:105E280011660008AC4A002003000000196600084B
:105E38003F0E00080000000023660008DD0E000881
:105E4800000000002E6600087F0C0008000000001B
:105E580036660008DC4A002002000000416600089F
:105E680005100008000000002E6600087F0C0008DE
:105E7800000000004A660008004B002005000000F2
:105E880057660008FD0A0008844B002011660008C8
:105E9800FD0A0008A04A002036660008FD0A00082E
:105EA800D04A00205D660008FD0A00083C4B00202F
:105EB80068660008F1120008000000005D6600082E
:105EC800484B002005000000746600088510000893
:105ED80000000000806600088F1000080000000025
:105EE80090660008A310000800000000A0660008E3
:105EF80099100008000000002E6600087F0C0008BA
:105F08000000000057660008904B002004000000C5
:105F1800A96600087911000800000000B0660008B2
:105F2800F111000800000000B666000865120008BC
:105F3800000000002E6600087F0C0008000000002A
:020AFC00704741
:0A0AFE0010B5AC4C2069E060806880
:100B080098B10020206020698068A0604168206852
:080B18000C2200FB0210206119
:100B200000F0F8F86068401C606004EB8001A06889
:020B300048611A
:040B3200E0684068CF
:020B36008047F6
:020B380010BDEE
:100B3A00F0B55B4C20694168A0680C2700FB0710E0
:100B4A00A06104209A4E3060A0690668994D286811
:100B5A000068821CA1682868006802FB0100001D69
:080B6A00C4B221460020934AA9
:060B720000F0F9FC304622
:100B7800FFF709FB296849687F2200FB112040081C
:060B8800C0B22146324616
:080B8E0000F0EBFC464CA068EE
:060B960008B92069806827
:100B9C00401EA06020694168A06800FB0710A0619E
:100BAC000320824E306028680078821C217A2868E5
:0E0BBC00007802FB0100001DC1B200207D4A3E
:0C0BCA0000F0CDFCE168A06844F82100B8
:020BD600F0BD70
:100BD800F0B5344C20694168A0680C2700FB071069
:100BE800A0610420724E3060A0690668714D2868C3
:100BF8000068821CA1682868006802FB0100001DCB
:080C0800C4B2214600206C4A31
:060C100000F0AAFC3046D2
:100C1600FFF7BAFA296849687F2200FB11204008CD
:060C2600C0B22146324677
:100C2C0000F09CFC1E4CA16820698068401E81422B
:100C3C002EBF0020A068401CA06020694168A068FD
:100C4C0000FB0710A0610320584E30602868007824
:100C5C00821C217A2868007802FB0100001DC1B2B9
:040C6C000020544AC6
:0C0C700000F07AFCE168A06844F8210064
:020C7C00F0BDC9
:060C7E0000B50A48C16840
:060C840009B9491CC16022
:100C8A0000EB81018969016149688161C2680021BB
:0C0C9A0040F822108160C168491EC16052
:040CA60000F035F82D
:020CAA0000BD8B
:040CAC00485200208A
:040CB00030B5054610
:100CB400FFF76BFA404C216849687F2200FB112141
:080CC4004908C8B200212A46CC
:100CCC0000F04CFC216809684B1C002237490A6073
:060CDC00002019467F22F2
:040CE200FFF7DFFA3F
:020CE60030BD1F
:100CE800074A08484260016800EB810341681961BE
:0C0CF80002F10C01C16004492E480160AB
:020D0400704736
:040D0800F44A002089
:040D0C00545200201D
:040D1000101C002093
:040D14002DE9F04392
:100D1800FFF773FD0420264F3860244CA068006854
:0E0D2800FFF7C2FF0027234D28680068061D54
:020D36001EE0BD
:100D380040680C2107FB010000688046F1B2894633
:040D480000201D4A20
:060D4C0000F00CFC404623
:100D5200FFF71CFA296849687F2200FB112040082E
:060D6200C0B24946424602
:0E0D680000F0FEFB7F1C286800680644B61CE5
:080D7600A06880688742A068B4
:100D7E00DBD3416820680C2200FB021020610320A7
:100D8E000A4F386028680078821C2178286800781D
:0C0D9E0002FB0100001DC1B20020054A4C
:040DAA0000F0DDFB7D
:040DAE00BDE8F08329
:040DB4005052002079
:040DB8003C52002089
:040DBC007052002051
:040DC000E8650008DA
:020DC40000B578
:060DC600FFF72BFB0128E2
:020DCC00FBD159
:040DCE00FFF7A1FF8B
:020DD20000BD62
:020DD40010B558
:080DD600FFF723FB044604288B
:040DDE0006D0052C0A
:040DE20007D0012C09
:020DE60007D133
:040DE800FFF789FE8A
:020DEC0004E021
:040DEE00FFF7A4FE69
:020DF20001E01E
:040DF400FFF7F0FE17
:060DF800FFF712FBA04210
:020DFE00FBD028
:020E0000E9E720
:0801C000485200206B520020A0
:0C01DC00A04A0020BF4B0020285E000855
:1066BE00CFF0E8ECE8F2E8E2FB00C8EDE4E8EAE04F
:0B66CE00F2EEF0FB0030003130300035
:0E0E0400F0B51D460E460746841822460B46E2
:0E0E1200FFF747FA35442B46384631463A463C
:0C0E2000FFF740FA2046314622462B46E0
:0C0E2C00FFF73AFA3846294622462B46CA
:040E3800FFF734FA92
:020E3C00F0BD07
:020E3E0030B5CD
:0C0E4000FFF7DFFC00256E48056023482A
:0C0E4C00FFF730FF19200E2129220E2391
:0C0E5800FFF724FA29200E2129221E2376
:0C0E6400FFF71EFA19200E2129221E2380
:060E7000FFF718FA2C4602
:0C0E760004F1230304F11900194629229D
:080E8200FFF70FFA641C112CAC
:080E8A00F4D3392016210822DF
:060E9200FFF755FA2C46A3
:060E980039202B21224647
:080E9E00FFF74FFA641C092C58
:0A0EA600F7D349200E21202210236B
:060EB000FFF7A8FF2C462D
:0A0EB60004F12303492019466922C4
:080EC000FFF7F0F9641C102C8F
:020EC800F5D360
:060ECA00FFF7A9FA012860
:020ED000FBD055
:040ED200FFF777FFB0
:020ED60030BD2D
:040ED800BE660008EA
:040EDC002DE9F043C9
:0C0EE000FFF78FFC0027464C27604448B9
:040EEC00FFF7E0FE2E
:060EF000FFF796FA01284D
:0A0EF600FBD0404A0B3218201221F5
:0C0F000000F032FB20200E2140220E23C6
:0C0F0C00FFF77AFF3A4A0D3261201221F3
:0A0F180000F026FB3F203F211E22BF
:0C0F2200FFF70DFA3F2022213F22292377
:0C0F2E00FFF7B9F9232035212A223823CF
:0C0F3A00FFF7B3F95B2035215422382367
:0C0F4600FFF7ADF92D20272133222D23C9
:0C0F5200FFF7A7F9512027214B222D2387
:0C0F5E00FFF7A1F901202060B94605460C
:020F6A003FE066
:0A0F6C0009EB850809F122063C4656
:0A0F760004F11003F21C3046194686
:080F8000FFF790F9641C0B2C33
:060F8800F5D3B8F13D0FA6
:060F8E0002DAB8F1000FC9
:020F940001D585
:020F96006D42AA
:020F980000E077
:020F9A00C1464E
:040F9C004FF4967008
:0C0FA00000F001FA56202E213F223F23D2
:060FAC00FFF77AF9962020
:0C0FB20000F0F8F956202E213F223F23CA
:060FBE00FFF771F9962017
:0C0FC40000F0EFF954202C213F223F23C5
:060FD000FFF768F996200E
:0C0FD60000F0E6F954202C213F223F23BC
:060FE200FFF75FF9962005
:040FE80000F0DDF93F
:060FEC00FFF718FA0128CE
:020FF200BBD171
:040FF400FFF78EFE77
:040FF800BDE8F083DD
:040FFC00C8660008BB
:041000003C5200203E
:1066DA0020202020C4EBFF2020E2EEE7E2F0E0F2E7
:1066EA00E0202020002020202020EDE0E6ECE8F247
:0A66FA00E52053454C20202020002D
:02100400F0B545
:10100600FFF7FCFB0421174801601748184C2060C5
:0610160000200021174A32
:10101C0000F0A4FA154A153220680078801CC1B281
:02102C000020A2
:04102E0000F09BFA39
:06103200FFF7F5F90128AB
:0E103800FBD01048104C2060002500263746E3
:0210460007E0C1
:02104800BD42A7
:08104A0004D148F6B800074488
:04105200FFF71DFC8B
:021056006D1C0F
:06105800FFF7E2F9012898
:04105E00F3D1266044
:04106200FFF715FC83
:04106600FFF755FE3D
:02106A00F0BDD7
:04106C003C520020D2
:04107000101C002030
:041074007052002096
:04107800DA6600082C
:04107C008053F0FDB0
:0410800040520020BA
:10670400CFF0E8ECE5F0FB20F8F0E8F4F2EEE2007C
:10671400D8F0E8F4F236583800D8F0E8F4F2313220
:1067240058313600D8F0E8F4F23758313000D8F058
:10673400E8F4F23758313020E6E8F0EDFBE900CF19
:10674400F0E8ECE5F0FB20F1F2E8EBE5E900CCE55C
:10675400F0F6E0FEF9E8E900CFE5F0E5ECE5EDED73
:10676400FBE900C4F0EEE6E0F9E8E900C1E5E3F393
:10677400F9E0FF20F1F2F0EEEAE0002020204C44A2
:106784004D2D4B313938364245393251492020207C
:106794002020002020CEF2EBE0E4EEF7EDE0FF2035
:1067A40020EFEBE0F2E02020202000202020202019
:1067B40020202020202020202020202020202000F5
:1067C4002020C4E5ECEE20EFF0E8ECE5F0202076A4
:1067D4002E312E3020002020204C444D2D5359536F
:1067E40054454D53203230313320202020200020C6
:1067F400207777772E6C646D2D73797374656D7360
:086804002E72752020202000F7
:1064E200CCE8EAF0EEEAEEEDF2F0EEEBEBE5F0FBF3
:1064F20020F1E52D2000F0E8E8204B313938364212
:10650200453932514920FFE2EBFF2D00FEF2F1FF47
:1065120020ECE8EAF0EEEAEEEDF2F0EEEB2D2020D0
:106522002000EBE5F0E0ECE820F1EE20E2F1F2F001
:10653200EEE5EDEDEEE92000466C61736820EFE0D8
:10654200ECFFF2FCFE20EFF0EEE32D202000F0E065
:10655200ECEC20E820EFEEF1F2F0EEE5EDFB20EDC1
:10656200E0202000E1E0E7E520E2FBF1EEEAEEEFD9
:10657200F0EEE8E7E2EEE4E82D00F2E5EBFCEDEE0A
:10658200E3EE20EFF0EEF6E5F1F1EEF0EDEE2D00A8
:10659200E3EE205249534320FFE4F0E02020202084
:1065A200202020202000436F727465782D4D332EF9
:0D65B2002020202020202020202020000A72
:0611780030B5854C25682E
:10117E00FFF740FB04218348016035482060144886
:04118E00FFF78FFDDB
:06119200FFF745F90128FA
:0A119800FBD0114A103200200C2198
:1011A20000F0E1F90F4820600D4A193200201621A3
:1011B20000F0D9F90C482060094A24320020282185
:1011C20000F0D1F909482060054A2E32002034216E
:0611D20000F0C9F92560E0
:0411D800FFF7F4FD2C
:0211DC0030BD24
:0411E0000467000898
:0411E40000040020E3
:0411E8003030002083
:0411EC00202200209D
:0611F00030B5674C2568D4
:1011F600FFF704FB04216548016017482060154885
:04120600FFF753FD9E
:06120A00FFF709F90128BD
:02121000FBD011
:0A121200124A0F3200200C210123C4
:04121C0000F0B9F92C
:06122000FFF7FEF80128B3
:0C12260015D00C4A1932002020210223B0
:0412320000F0AEF921
:06123600FFF7F3F80128A8
:0C123C000AD0074A24320020342103238A
:0412480000F0A3F916
:06124C00FFF7E8F801289D
:02125200DED1EB
:02125400256013
:04125600FFF75DFD44
:02125A0030BDA5
:04125C0043670008DC
:04126000101C00203E
:08126400F0B5204801780929CA
:08126C0003D308270678083EB1
:0212740001E097
:0412760007780026CF
:0A127A00FFF7C2FA042144480160A6
:06128400FFF7CCF8012881
:04128A00FBD0002471
:02128E00002539
:021290000DE06F
:1012920060191622154900FB02123C4800680078CA
:0612A2006843C1B2002008
:0612A80000F05EF96D1C70
:0212AE00BD423F
:0212B000EFD37A
:0612B200FFF7B5F800286B
:0212B800FBD069
:0812BA00FFF7B1F80546052815
:0412C20004D0042D23
:0212C60005D150
:0412C80024B1641ECB
:0212CC0002E03E
:0212CE00B44228
:0412D00000D2641CC8
:0212D400012DEA
:0212D600DAD16B
:0612D800FFF7A2F8A84296
:0212DE00FBD043
:0412E000FFF718FDFF
:0212E400F0BD5B
:0412E800365200205A
:0412EC005A51002033
:0212F00070B5D7
:1012F200FFF786FA04252648056000200021224ACD
:1013020000F031F9214A1832214C20680078401C43
:04131200C1B2002044
:1013160000F027F91C4A3032206800784000801C13
:04132600C1B2002030
:10132A0000F01DF9174A30322068007803230221A1
:08133A0000FB0310C1B200200A
:1013420000F011F9114A4532206800788000C01C73
:04135200C1B2002004
:1013560000F007F90C4A5B3220680078052600FB8E
:061366000650C1B2002098
:10136C0000F0FCF8064A743220680078062100FB75
:06137C000160C1B2002077
:0413820000F0F1F88E
:04138600FFF71DFD53
:02138A0070BD34
:04138C007F6700086F
:041390007052002077
:041394003C520020A7
:0C01E8005A51002036520020E26400084A
:041398000B48016895
:08139C0011B10168491E016056
:0213A400704790
:0E13A60060B1074A10600549486007200860E2
:0413B4001068002895
:0A13B800FCD10A68520852000A60D6
:0213C200704772
:0413C40010E000E055
:0413C8006C52002043
:0801C8006C5200206F52002070
:10178800100000000C000000FF0000001004002002
:101798000000000000000000000000000000000041
:1017A800000000000000000000F00C02323101319E
:1017B80032020CF000030C101122222211100C032B
:1017C80000F0FCFECECFFFCFCEFEFCF000030F1FD3
:1017D8001E3D3D3D1E1F0F030000F0F8F8F0E0F03D
:1017E800F8F8F0000000000103070F0703010000EC
:1017F800000080C0E0F0F8F0E0C0800000000001C8
:1018080003070F07030100000080C0C0B8FCFCFC00
:10181800B8C0C08000030707131B1F1B130707036B
:10182800000080C0E0F0FCF0E0C08000000003078A
:10183800171B1F1B170703000000000080C0C08093
:101848000000000000000000010303010000000088
:10185800FFFFFFFF7F3F3F7FFFFFFFFFFFFFFFFF10
:10186800FEFCFCFEFFFFFFFF000000C02010102060
:10187800C000000000000003040808040300000082
:10188800FFFFFF3FDFEFEFDF3FFFFFFFFFFFFFFC43
:10189800FBF7F7FBFCFFFFFF0080C060202060C85B
:1018A800A81878000003070C08080C0703000000BC
:1018B80000000070F88C04048CF870000000000030
:1018C80008093F3F09080000000000000000FF0E63
:1018D8007C3800000000000C1E1E0F0000000000F5
:1018E80000000000FF3366CC98F0000000060F0FE0
:1018F80007003078793F00000080C8F030181E18C3
:1019080030F0C88000000907060C3C0C06070900E7
:10191800000000FCF8F0E0C0800000000000001F9C
:101928000F0703010000000000000080C0E0F0F88D
:10193800FC000000000000000103070F1F0000006A
:1019480000000010181CFE1C181000000000000405
:101958000C1C3F1C0C040000000000FEFE0000FEF2
:10196800FE00000000000037370000373700000095
:1019780000387CC682FEFE02FEFE02000000000067
:10198800003F3F003F3F00000000DCFE22222222F1
:10199800E6C4000000000819111111111F0E000003
:1019A80000000000000000000000000000000038F7
:1019B8003838383838383800000000080C0EFF0E68
:1019C8000C080000000000444C5C7F5C4C440000A4
:1019D80000000010181CFE1C181000000000000079
:1019E80000003F0000000000000000000000FE00B2
:1019F80000000000000000040C1C3F1C0C04000048
:101A080000008080808080F0E0C08000000000003E
:101A18000000000703010000000080C0E0F08080A3
:101A28008080800000000001030700000000000023
:101A3800000000000000000000000000003F20201F
:101A480020202020202020000080C0E0F08080801E
:101A5800F0E0C08000000103070000000703010058
:101A68000000000080C0E0C08000000000040607FD
:101A78000707070707070604002060E0E0E0E0E04A
:101A8800E0E06020000000000103070301000000FF
:101A9800000000000000000000000000000000003E
:101AA8000000000000000000000000007CFFFF7C38
:101AB80000000000000000000033330000000000B8
:101AC8000000003C3C00003C3C000000000000001E
:101AD800000000000000000000001090F07E1E9042
:101AE800F07E1E1000021E1F03021E1F03020000CC
:101AF800000078FCCCFFFFCCCC8800000000040C70
:101B08000C3F3F0C0F07000000003838380080C039
:101B1800E070381C0030381C0E07030138383800D4
:101B2800000000B8FCC6E23E1C00000000001F3F99
:101B38003121371E1C36220000000000273F1F00FD
:101B4800000000000000000000000000000000008D
:101B5800000000F0FCFE0701010000000000000387
:101B68000F1F382020000000000000010107FEFCC4
:101B7800F00000000000002020381F0F03000000C4
:101B8800000098B8E0F8F8E0B898000000000C0EE3
:101B9800030F0F030E0C00000000808080F0F0801F
:101BA8008080000000000101010F0F010101000009
:101BB800000000000000000000000000000000001D
:101BC800B8F87800000000000000808080808080E5
:101BD80080800000000001010101010101010000F5
:101BE80000000000000000000000000000000000ED
:101BF8003838380000000000000000000080C0E015
:101C080070381C0E00181C0E0703010000000000AD
:101C180000F8FE060383C363331EFEF800071F1E89
:101C28003331303030181F070000000C0C0EFFFF56
:101C3800000000000000003030303F3F30303000FE
:101C4800001C1E07030383C3E3773E1C0030383CA7
:101C58003E37333130303030000C0E07C3C3C3C3B6
:101C6800C3E77E3C000C1C383030303030391F0E52
:101C780000C0E070381C0E07FFFF000000030303DC
:101C8800030303033F3F0303003F7F63636363630F
:101C980063E3C383000C1C383030303030381F0FFA
:101CA80000C0F0F8DCCEC7C3C3C38000000F1F39E3
:101CB8003030303030391F0F00030303030303C3F0
:101CC800F33F0F0300000000303C0F03000000004A
:101CD8000000BCFEE7C3C3C3E7FEBC00000F1F390A
:101CE8003030303030391F0F003C7EE7C3C3C3C3E8
:101CF800C3E7FEFC000000303030381C0E0703003C
:101D0800000000007070700000000000000000007B
:101D18001C1C1C0000000000000000007070700017
:101D280000000000000000009CFC7C000000000097
:101D38000000C0E0F0381C0E07030000000000019E
:101D480003070E1C383000000000606060606060AF
:101D58006060600000000606060606060606060025
:101D6800000003070E1C38F0E0C000000000303807
:101D78001C0E070301000000001C1E070383C3E3B9
:101D8800773E1C000000000000373700000000000C
:101D980000F8FE07F3FB1BFBFB07FEF8000F1F18FC
:101DA8003337363737360301000000E0FC1F1FFCCD
:101DB800E000000000383F0706060606073F380027
:101DC80000FFFFC3C3C3C3E7FEBC0000003F3F30B2
:101DD80030303030391F0F0000F0FC0E07030303CA
:101DE800070E0C0000030F1C38303030381C0C0074
:101DF80000FFFF03030303070EFCF000003F3F3022
:101E0800303030381C0F030000FFFFC3C3C3C3C307
:101E1800C3030300003F3F303030303030303000F3
:101E280000FFFFC3C3C3C3C3C3030300003F3F0096
:101E3800000000000000000000F0FC0E0703C3C310
:101E4800C3C7C60000030F1C38303030303F3F0096
:101E580000FFFFC0C0C0C0C0C0FFFF00003F3F0080
:101E680000000000003F3F000000000303FFFF03E5
:101E78000300000000000030303F3F303000000019
:101E8800000000000000000000FFFF00000E1E38E8
:101E980030303030381F070000FFFFC0E0F0381C3A
:101EA8000E070300003F3F000103070E1C383000F7
:101EB80000FFFF000000000000000000003F3F306E
:101EC800303030303030300000FFFF1E78E0E078EE
:101ED8001EFFFF00003F3F0000010100003F3F00E0
:101EE80000FFFF0E38F0C00000FFFF00003F3F007A
:101EF800000003071C3F3F0000F0FC0E0703030728
:101F08000EFCF00000030F1C383030381C0F0300A3
:101F180000FFFF8383838383C7FE7C00003F3F016C
:101F2800010101010100000000F0FC0E0703030796
:101F38000EFCF00000030F1C3830363E1C3F330007
:101F480000FFFF8383838383C7FE7C00003F3F013C
:101F58000103070F1D383000003C7EE7C3C3C3C32D
:101F6800C78E0C00000C1C3830303030391F0F0081
:101F78000000030303FFFF03030300000000000049
:101F8800003F3F000000000000FFFF0000000000CD
:101F980000FFFF0000071F3830303030381F0700BF
:101FA80000073FF8C00000C0F83F0700000000012C
:101FB8000F3E3E0F0100000000FFFF000080800080
:101FC80000FFFF00003F3F1C060303061C3F3F00C5
:101FD80000030F1C30E0E0301C0F030000303C0E03
:101FE800030101030E3C300000030F3CF0C0C0F0B9
:101FF8003C0F030000000000003F3F00000000000D
:102008000003030303C3E3331F0F030000303C3E08
:102018003331303030303000000000FFFF0303035D
:10202800030000000000003F3F3030303000000067
:10203800000E1C3870E0C0800000000000000000A6
:1020480000000103070E1C1800000003030303FF30
:10205800FF000000000000303030303F3F0000003B
:10206800006070381C0E070E1C38706000000000FD
:102078000000000000000000000000000000000058
:102088000000000000C0C0C0C0C0C0C0C0C0C0C008
:1020980000000000003E7E4E00000000000000002E
:1020A8000000000000000000000040606060606008
:1020B80060E0C000001C3E3333333333333F3F000E
:1020C80000FFFFC060606060E0C08000003F3F30FC
:1020D80030303030381F0F000080C0E06060606032
:1020E80060C08000000F1F383030303030180800D2
:1020F8000080C0E0606060E0C0FFFF00000F1F3894
:1021080030303030303F3F000080C0E060606060B9
:1021180060C08000000F1F3B33333333331301009B
:1021280000C0C0FCFEC7C3C3030000000000003F9E
:102138003F000000000000000080C0E060606060B8
:1021480060E0E0000003C7CECCCCCCCCE67F3F00FB
:1021580000FFFFC0606060E0C0800000003F3F00FB
:10216800000000003F3F00000000000060ECEC00B1
:102178000000000000000030303F3F303000000019
:1021880000000000000060ECEC00000000000060AF
:10219800E0C0C0FF7F0000000000FFFF0080C0E03B
:1021A8006000000000003F3F03070F1C38300000AC
:1021B8000000000003FFFF000000000000000030E6
:1021C800303F3F303000000000E0C0E0E0C0C0E039
:1021D800E0C08000003F3F00003F3F00003F3F005D
:1021E8000000E0E060606060E0C0800000003F3F09
:1021F80000000000003F3F000080C0E060606060B9
:10220800E0C08000000F1F3830303030381F0F001A
:1022180000E0E06060606060E0C0800000FFFF0CEC
:10222800181818181C0F07000080C0E06060606074
:1022380060E0E00000070F1C181818180CFFFF00DA
:102248000000E0E0C060606060E0C00000003F3F68
:10225800000000000000000000C0E06060606060F6
:1022680040000000001133333333333F1E000000B9
:10227800006060FEFE606060000000000000001F5B
:102288003F3030303000000000E0E0000000000087
:1022980000E0E000000F1F3830303030183F3F00BA
:1022A8000060E0800000000080E06000000001079E
:1022B8001E38381E0701000000E0E00000E0E000E2
:1022C80000E0E00000071F381C0F0F1C381F070034
:1022D8000060E0C0800080C0E06000000030381D71
:1022E8000F070F1D38300000000060E080000080FC
:1022F800E060000000000081E77E1E07010000008A
:10230800006060606060E0E0602000000030383C01
:102318003633313030300000000080C0FC7E0703C7
:1023280003030000000000011F3F706060600000B0
:102338000000000000FFFF00000000000000000097
:10234800003F3F00000000000000030303077EFC7D
:10235800C08000000000606060703F1F0100000046
:102368000010180C040C1810180C040000000000D1
:102378000000000000000000000080C060303060F5
:10238800C0800000000F0F0C0C0C0C0C0C0F0F0081
:102398005500AA005500AA005500AA005500AA0039
:1023A8005500AA005500AA00AA55AA55AA55AA552B
:1023B800AA55AA55AA55AA55AA55AA55AA55AA551D
:1023C800AAFF55FFAAFF55FFAAFF55FFAAFF55FF11
:1023D800AAFF55FFAAFF55FF0000000000FFFF00FD
:1023E800000000000000000000FFFF0000000000E7
:1023F8008080808080FFFF00000000000101010153
:1024080001FFFF0000000000C0C0C0C0C0FFFF0007
:10241800000000000606060606FFFF000000000098
:102428008080FFFF00FFFF00000000000101FFFFA8
:1024380000FFFF0000000000808080808080800016
:10244800000000000101FFFF01FFFF000000000085
:10245800C0C0C0C0C0C0C00000000000060606061C
:1024680006FFFF0000000000C0C0FFFF00FFFF00E4
:10247800000000000606FEFE00FFFF00000000004E
:102488000000FFFF00FFFF00000000000000FFFF4A
:1024980000FFFF0000000000C0C0C0C0C0C0C000F6
:1024A800000000000606FEFE00FFFF00000000001E
:1024B800C0C0FFFF00FFFF00000000000606060680
:1024C80006070700000000008080FFFF80FFFF0074
:1024D80000000000010101010101010000000000ED
:1024E800C0C0C0C0C0FFFF0000000000060606060E
:1024F8000607070000000000808080808080800040
:10250800000000000101010101FFFF0000000000C0
:102518000000000000FFFF80808080800000000035
:1025280000010101010101018080808080FFFF809E
:102538008080808001010101010101010101010187
:10254800808080808080808080808080010101017F
:1025580001FFFF01010101010000000000FFFF80F1
:10256800808080800000000000FFFF010101010160
:10257800808080808080808080808080010101014F
:1025880001010101010101018080808080FFFF803D
:10259800808080800101010101FFFF01010101012B
:1025A8000000000000FFFFC0C0C0C0C00000000065
:1025B80000FFFF06060606060000FFFF00FFFF807B
:1025C800808080800000FFFF00FFFF010101010102
:1025D8000000FFFF00FFFFC0C0C0C0C00000070729
:1025E80006060606060606060000C0C0C0C0C0C033
:1025F800C0C0C0C00000FFFF00FEFE0606060606BB
:10260800C0C0FFFF00FFFFC0C0C0C0C0060606066E
:102618000606060606060606C0C0C0C0C0C0C0C082
:10262800C0C0C0C00606FEFE00FEFE060606060680
:102638000000FFFF00FFFFC0C0C0C0C00000FFFFD8
:1026480000FEFE0606060606C0C0C0C0C0C0C0C068
:10265800C0C0C0C00606060606060606060606062A
:10266800C0C0FFFF00FFFFC0C0C0C0C00606FEFE1E
:1026780000FEFE0606060606C0C0C0C0C0FFFFC0BA
:10268800C0C0C0C0060606060606060606060606FA
:102698008080FFFF80FFFF80808080800101010132
:1026A8000101010101010101C0C0C0C0C0C0C0C01A
:1026B800C0C0C0C00606060606FEFE0606060606DA
:1026C8008080808080808080808080800101FFFF02
:1026D80001FFFF01010101010000FFFF80FFFF80F2
:1026E80080808080000001010101010101010101D8
:1026F8000000000000FFFFC0C0C0C0C00000000014
:1027080000070706060606060000000000C0C0C055
:10271800C0C0C0C00000000000FFFF060606060695
:102728000000808080808080808080800000FFFFA3
:1027380001FFFF01010101018080FFFF00FFFF8011
:10274800808080800101FFFF00FFFF01010101017E
:1027580000F8F89B9B98989B9B181800003F3F3106
:102768003131313131303000C0C0C0C0C0FFFFC08E
:10277800C0C0C0C00606060606FEFE060606060619
:102788008080808080FFFF000000000001010101BF
:1027980001010100000000000000000000808080AE
:1027A800808080800000000000FFFF01010101011E
:1027B800FFFFFFFFFFFFFFFFFFFFFFFFFFFFFFFF21
:1027C800FFFFFFFFFFFFFFFF000000000000000009
:1027D80000000000FFFFFFFFFFFFFFFFFFFFFFFFFD
:1027E800FFFFFFFFFFFF000000000000FFFFFFFFEB
:1027F800FFFF000000000000000000000000FFFFD5
:10280800FFFFFFFF000000000000FFFFFFFFFFFFCA
:10281800FFFFFFFFFFFFFFFFFFFFFFFF00000000BC
:1028280000000000000000000000F0080810201060
:102838000808F0000000000102040804020100007A
:1028480000E0F0F0F0E8E4E4E4E4E8F00001030775
:10285800070707070707030100E030303028242462
:10286800242428F0000102040404040404040201DE
:1028780000000000807008F8000000000000000060
:10288800000000000000000000808080A09C82BE44
:1028980080808000000000000608083E000000005C
:1028A800000060E888101088E860000000000081DF
:1028B800E77E1E07010000000000001E3F33333F83
:1028C8001E000000000000000000000000000000E2
:1028D8000080C0EC6C60606C6CC08000000F1F331F
:1028E8003333333333130300000000C0E0E0E0E08B
:1028F800C0000000000000030707070703000000EE
:10290800000000000080C0800000000000000000FF
:102918000001030100000000000000000000FEFEAE
:1029280006060606000003060C183F3F00000000DC
:10293800FFFF1EF08000FFFF1C36361C3F3F0000E3
:10294800031E3F3F0303030300F6FE180C0C0C0C98
:1029580018FEF600001B1F060C0C0C0C061F1B00B3
:1029680000000000F0F0F0F000000000000000009F
:102978000303030300000000000000000000000043
:10298800000000000000000000000000000000003F
:1029980000F0FC0E0703030303FFFF00003F3F03A3
:1029A80003030303033F3F0000FFFFC3C3C3C3C3C5
:1029B800C3830300003F3F3030303030391F0F00F1
:1029C80000FFFFC3C3C3C3E7FEBC0000003F3F30A6
:1029D80030303030391F0F0000FFFF0303030303BB
:1029E80003030300003F3F00000000000000000058
:1029F80000F0FC0E0703030303FFFF00F0FF3F3066
:102A080030303030303FFFF000FFFFC3C3C3C3C3D3
:102A1800C3030300003F3F303030303030303000E7
:102A28000F3EF8E0C0FFFFC0E0F81E073C1F07019B
:102A3800003F3F0001071F3C000C0E07C3C3C3C380
:102A4800C3E77E3C000C1C383030303030391F0E64
:102A580000FFFF0000C0F0380EFFFF00003F3F1CE2
:102A680007030000003F3F0000FFFF0000C6F338E7
:102A78000EFFFF00003F3F1C07030000003F3F0020
:102A880000FFFFC0E0F0381C0E070300003F3F00C6
:102A98000103070E1C38300000F0FC0E0703030387
:102AA80003FFFF00003F3F0000000000003F3F0021
:102AB80000FFFF1E78E0E0781EFFFF00003F3F00A8
:102AC80000010100003F3F0000FFFFC0C0C0C0C0C0
:102AD800C0FFFF00003F3F0000000000003F3F0034
:102AE80000F0FC0E070303070EFCF00000030F1CA8
:102AF800383030381C0F030000FFFF0303030303C3
:102B080003FFFF00003F3F0000000000003F3F00C0
:102B180000FFFF8383838383C7FE7C00003F3F0160
:102B2800010101010100000000F0FC0E070303038E
:102B3800070E0C0000030F1C38303030381C0C0016
:102B48000000030303FFFF0303030000000000006D
:102B5800003F3F0000000000007FFFC0C0C0C0C0B1
:102B6800C0FFFF000018383030303030381F070001
:102B780000F8FC0C0CFFFF0C0CFCF8000003070627
:102B8800063F3F060607030000030F1C30E0E03055
:102B98001C0F030000303C0E030101030E3C300003
:102BA80000FFFF0000000000FFFF0000003F3F3073
:102BB800303030303FFFF000007FFFC0C0C0C0C0E1
:102BC800C0FFFF000000000000000000003F3F00C1
:102BD80000FFFF0000FFFF0000FFFF00003F3F3045
:102BE800303F3F30303F3F0000FFFF0000FFFF0055
:102BF80000FFFF00003F3F30303F3F30303FFFF0E5
:102C08000F0F03FFFF606060E0C080000000003F1E
:102C18003F303030381F0F0000FFFF6060E0C08099
:102C280000FFFF00003F3F3030381F0F003F3F00DC
:102C380000FFFF6060606060E0C08000003F3F30E0
:102C480030303030381F0F00000C0E07C3C3C3C725
:102C5800CEFCF000000C1C38303030381C0F03005C
:102C6800FFFFC0F0FC0E0703070EFCF03F3F000318
:102C78000F1C3830381C0F03007CFEC78383838306
:102C880083FFFF000030381D0F070301013F3F009D
:102C9800000040606060606060E0C000001C3E337F
:102CA80033333333333F3F0000F0F898D8D8D8D8BF
:102CB800D88C0000001F3F3130303030391F0F00F2
:102CC8000000E0E060606060E0C0000000003F3F9E
:102CD800323232323F1D00000000E0E06060606088
:102CE8006060000000003F3F00000000000000009E
:102CF800000080C060606060E0E0000000F0FF3F1E
:102D0800303030303FFFF0000080C0E0606060602D
:102D180060C08000000F1F3B33333333331301008F
:102D280060E0C08000E0E00080C0E06030381F074D
:102D3800033F3F03071F3830000080C060606060B9
:102D4800C080000000000818303232321F0D000029
:102D58000000E0E00000000080E0E00000003F3FED
:102D6800180C0603013F3F000000E0E00000180CCB
:102D780080E0E00000003F3F180C0603013F3F00E1
:102D88000000E0E00080C0E06000000000003F3F7D
:102D980003070F1C38300000000080C060606060CE
:102DA800E0E0000000003F3F000000003F3F00005F
:102DB80000E0E0E0C00000C0E0E0E000003F3F00CD
:102DC80001030301003F3F000000E0E000000000B5
:102DD80000E0E00000003F3F06060606063F3F0011
:102DE8000080C0E060606060E0C08000000F1F38B5
:102DF80030303030381F0F000000E0E06060606065
:102E080060E0E00000003F3F00000000003F3F009E
:102E180000E0E06060606060E0C0800000FFFF0CE0
:102E2800181818181C0F07000080C0E06060606068
:102E380060C08000000F1F38303030303018080074
:102E48000000606060E0E06060600000000000007A
:102E5800003F3F0000000000000060E080000080AC
:102E6800E060000000000081E77E1E07010000000E
:102E78000080C0C0C0E0E0C0C0C08000001F3F307C
:102E880030FFFF30303F1F000060E0C0800080C08E
:102E9800E06000000030381D0F070F1D38300000BB
:102EA8000000E0E000000000E0E0000000003F3F1C
:102EB800303030303FFFF0000000E0E0000000005C
:102EC800E0E0000000000307060606063F3F00009A
:102ED80000E0E00000E0E00000E0E000003F3F30FC
:102EE800303F3F30303F3F0000E0E00000E0E000CE
:102EF80000E0E000003F3F30303F3F30303FFFF020
:102F080000E0E060E0E000000000000000000000D9
:102F18003F3F3333333F1E0000E0E0000000000075
:102F280000E0E000003F3F3333333F1E003F3F00E7
:102F38000000E0E0000000000000000000003F3F4B
:102F4800333333333F1E00000080C0606060606030
:102F5800C0800000000818303033333B1F0F0000DA
:102F680000E0E00080C0E060E0C08000003F3F0378
:102F78000F1F3830381F0F000000C0E0606060602D
:102F8800E0E000000000313B1E0E06023F3F00005B
:0C01F400000400200F1C002088170008E9
:102F98000800000006000000FF000000201C0020C0
:102FA800000000000000003E4551453E003E6B6FAA
:102FB8006B3E001C3E7C3E1C00183C7E3C180030DA
:102FC800367F363000185C7E5C1800001818000048
:102FD800FFFFE7E7FFFF003C24243C00FFC3DBDBE7
:102FE800C3FF0030484A360E0006297929060060DA
:102FF800703F020400607E0A353F002A1C361C2AF6
:1030080000007F3E1C0800081C3E7F000014367F2D
:10301800361400005F005F000006097F017F002270
:103028004D5559220060606060000014B6FFB61468
:103038000004067F06040010307F30100008083EA8
:103048001C0800081C3E0808007840404040000862
:103058003E083E0800303C3F3C3000030F3F0F0362
:103068000000000000000000065F060000070300E3
:10307800070300247E247E2400242B6A12000063A8
:103088001308646300364956205000000703000007
:1030980000003E4100000000413E000000083E1CC8
:1030A8003E080008083E08080000E060000000082C
:1030B80008080808000060600000002010080402EA
:1030C800003E4141413E0000427F400000625149BC
:1030D8004946002249494936001814127F10002F2A
:1030E80049494931003C4A49493000017109050301
:1030F80000364949493600064949291E00006C6CCA
:1031080000000000EC6C00000008142241000024BC
:10311800242424240000412214080002015909062D
:10312800003E415D551E007E1111117E007F494908
:103138004936003E41414122007F4141413E007FE6
:1031480049494941007F09090901003E4149497A35
:10315800007F0808087F0000417F410000304040A0
:10316800403F007F08142241007F40404040007FDC
:103178000204027F007F0204087F003E4141413E75
:10318800007F09090906003E4151215E007F0909B7
:1031980019660026494949320001017F0101003FB3
:1031A8004040403F001F2040201F003F403C403F20
:1031B8000063140814630007087008070071494584
:1031C800430000007F414100000204081020000075
:1031D80041417F00000402010204808080808080D9
:1031E800000003070000002054545478007F444432
:1031F800443800384444442800384444447F003864
:103208005454540800087E0909000018A4A4A47C9A
:10321800007F040478000000007D400000408084A6
:103228007D00007F102844000000007F4000007CE3
:1032380004180478007C04047800003844444438B6
:1032480000FC444444380038444444FC0044784476
:10325800040800085454542000043E442400003C50
:1032680040207C00001C2040201C003C6030603C5A
:10327800006C10106C00009CA0603C00006454546A
:103288004C0000083E4141000000007700000000AB
:1032980041413E08000201020100003C2623263C71
:1032A800441144114411AA55AA55AA55BBEEBBEEC8
:1032B800BBEE000000FF0000080808FF00000A0A33
:1032C8000AFF000008FF00FF000008F808F80000E7
:1032D8000A0A0AFE00000AFB00FF000000FF00FFC8
:1032E80000000AFA02FE00000A0B080F0000080F8F
:1032F800080F00000A0A0A0F0000080808F8000072
:103308000000000F08080808080F0808080808F84F
:103318000808000000FF0808080808080808080846
:1033280008FF0808000000FF0A0A00FF00FF08085D
:10333800000F080B0A0A00FE02FA0A0A0A0B080B19
:103348000A0A0AFA02FA0A0A00FF00FB0A0A0A0A2B
:103358000A0A0A0A0AFB00FB0A0A0A0A0A0B0A0AEC
:10336800080F080F08080A0A0AFA0A0A08F808F8EB
:103378000808000F080F08080000000F0A0A0000DC
:1033880000FE0A0A00F808F8080808FF08FF0808FD
:10339800007E4B4A4B420A0A0AFF0A0A0808080F2D
:1033A8000000000000F80808FFFFFFFFFFFFF0F033
:1033B800F0F0F0F0FFFFFF000000000000FFFFFF4B
:1033C8000F0F0F0F0F0F003E494941220038545488
:1033D80044280001407E40010000017C4100002794
:1033E800484B483F009DA2623D00000609090600BF
:1033F800003855545508000018180000000008004F
:1034080000000030403E02027F06187F13132A3E58
:1034180014143E2A003C3C3C3C0000000000000024
:10342800007E1111117E007F49494931007F4949C9
:103438004936007F01010101C07E41417FC0007F04
:10344800494949410077087F0877224949493600A8
:10345800007F2010087F007E2111097E007F08145C
:10346800224100407E01017F007F0204027F007F2D
:103478000808087F003E4141413E007F0101017F6D
:10348800007F09090906003E414141220001017FF0
:10349800010100274848483F000E117F110E0063C4
:1034A80014081463007F40407FC000070808087FA5
:1034B800007F407F407F007F407F40FF03017F48BF
:1034C8004830007F4848307F007F48484830002215
:1034D8004149493E007F083E413E00661909097F7F
:1034E800002054545478003C4A4A4A31007C5454D1
:1034F8005428007C04040C00C07844447CC0003884
:1035080054545408006C107C106C002844545428FF
:10351800007C2010087C007C20120A7C007C10288B
:103528004400403804047C00007C0810087C007CBF
:103538001010107C003844444438007C0404047C97
:1035480000FC444444380038444444280004047CC3
:103558000404009CA0603C000018247C2418006C23
:1035680010106C00007C40407CC0000C1010107CD7
:10357800007C407C407C007C407C40FC0C047C50FF
:103588005020007C5050207C007C50505020002857
:1035980044545438007C1038443800483414147C9F
:0C020000101C00201F220020982F000876
:1035A8000A00000007000000FF0000003022002091
:1035B800000000000000000000000000000078A4E7
:1035C8004A424AA4780000010101000078DCB6BE36
:1035D800B6DC78000001010100001C3E7EFC7E3E46
:1035E8001C0000000000000010387CFE7C38100031
:1035F800000000000000307877BF777830000101C4
:1036080001010100387C7EBF7E7C38000101010188
:1036180001000070F8F8F8700000000000000000D9
:10362800FF8F0707078FFF0F0F0F0F0F0F0F007088
:10363800888888700000000000000000FF8F7777FE
:10364800778FFF0F0F0F0F0F0F0FE010101AE60EF6
:103658000000010101000000004E51F1514E000030
:10366800000001000000008080FE04380000010115
:10367800000000008080FE0AC5C57F01010000002F
:10368800000010BA44C744BA10000000010000004E
:103698000000FCF87020000000010000000000207D
:1036A80070F8FC0000000000000100000044C6FFA4
:1036B800C644000000000100000000BFBF00BFBFFB
:1036C8000000010100010100000E1F11FF01FF00B1
:1036D800000000010001008EBF29FBE3000001018A
:1036E8000101000000C0C0C0C0C00000010101010C
:1036F8000100002466FF66240000010101010100A9
:10370800000406FF0604000000000100000000405D
:10371800C0FFC0400000000001000000202020F889
:10372800702000000000000000002070F820202019
:10373800000000000000000000F000000000000091
:103748000101010101002070F820F870200000003C
:1037580000000000C0F0FCFFFCF0C000000000000A
:103768000000061E7EFE7E1E06000000010000000E
:103778000000000000000000000000000000000041
:10378800BFBF0000000000010100000000070700A3
:10379800070700000000000000000048FE48FE483F
:1037A8000000000100010000004C9E93F26400003C
:1037B80000000300000000C6E936D82FC700010149
:1037C8000000010000E6FF19FFE6300000010100DB
:1037D80001010000040703000000000000000000D1
:1037E800007CFE83010000000000010100000001D0
:1037F80083FE7C00000001010000000010547C38AA
:103808007C541000000000000000002020F8F82080
:103818002000000000000000000080808000000000
:1038280000050703000000202020202000000000E1
:1038380000000000000080808000000000010101FD
:10384800000000C0F03C0F03000101000000000070
:1038580000FEFF01FFFF000001010101000000045C
:1038680006FFFF0000000000010100000086C7718C
:103878003F0E000001010101010000829311FFEEDB
:10388800000000010101000000787F47F8F84000BF
:10389800000000010100009F9F11F1E100000001FC
:1038A8000101000000F8FE17F1E00000000101012D
:1038B80000000001C1F93F070000000101000000FD
:1038C80000EEFF11FFEE0000000101010000000EF4
:1038D8009FF17F1E000001010000000000008C8C99
:1038E8008C00000000010101000000008C8C8C009D
:1038F80000000005070300000010386CC6830000B4
:103908000000000001000048484848480000000046
:10391800000000000083C66C3810000001000000A1
:1039280000000006A7B11F0E000000010100000002
:10393800007CFE8339453E0000000101010100FCC6
:10394800FE23FEFC000001010001010000FFFF1141
:10395800FFEE000001010101000000FEFF01C7C6E3
:10396800000000010101000000FFFF01FFFE000050
:1039780001010101000000FFFF1111010000010118
:103988000101010000FFFF11110100000101000009
:10399800000000FEFF01F3F2000000010101000039
:1039A80000FFFF10FFFF00000101000101000000FF
:1039B80001FFFF01000000010101010000C0C0007B
:1039C800FFFF000000010101000000FFFF38EFC702
:1039D800000001010001010000FFFF0000000000DD
:1039E800010101010100FFFF1C701CFFFF01010024
:1039F8000000010100FFFF1C30FFFF000101000073
:103A0800010100FEFF01FFFE0000000101010000AE
:103A180000FFFF111F0E000001010000000000FE62
:103A2800FF01FFFE000000010307040000FFFF1173
:103A3800FFEE000001010001010000CE9F39F3E60E
:103A48000000000101010000000101FFFF01010069
:103A580000000101000000FFFF00FFFF000000015F
:103A680001010000007FFF80FF7F000000000100CF
:103A780000003FFFC03CC0FF3F0001010001010002
:103A880000C7EF38EFC70000010100010100000F77
:103A98001FF0F01F0F0000000101000000C1F13D00
:103AA8000F0300000101010101000000FFFF0101F7
:103AB800000000030302020000030F3CF0C00000F6
:103AC800000000000101000101FFFF0000000202E8
:103AD80003030000000406030604000000000000C1
:103AE80000000000000000000002020202020202C0
:103AF800000003070400000000000000000000C0F0
:103B0800E828F8F0000000010101010000FFFF08AB
:103B1800F8F0000001010101000000F0F808989099
:103B2800000000010101000000F0F808FFFF00009C
:103B380000010101010000F0F82838B00000000180
:103B4800010100000008FEFF090900000001010052
:103B5800000000387C44FCFC000001020203010064
:103B680000FFFF08F8F0000001010001010000005B
:103B780008F9F9000000000101010100000008F93E
:103B8800F900000002020301000000FFFF70D8885E
:103B98000000010100010100000001FFFF0000001A
:103BA800000101010100F8F818F018F8F00101000F
:103BB8000000010100F8F808F8F000000101000118
:103BC800010000F0F808F8F0000000010101000011
:103BD80000F8F808F8F0000007070101000000F0FD
:103BE800F808F8F8000000010107070000F8F810CD
:103BF8001818000001010000000000307868E8C8CB
:103C080000000101010100000008FEFE080000009C
:103C180000000101010000F8F800F8F800000001B8
:103C2800010101000078F880F87800000000010028
:103C3800000078F880F080F87800010100010100A8
:103C48000098F860F8980000010100010100007870
:103C5800F880F87800000406030100000088C868AE
:103C6800381800000101010101000010FEEF0101F8
:103C780000000000010101000000DFDF000000007B
:103C88000007070000000001EFFE1000000001011E
:103C98000000000000060307060300000000000003
:103CA800000000F0988C98F000000101010101006B
:103CB8004400114400110004000104000100AA009E
:103CC80055AA0055000A00050A000500AA5555AA7C
:103CD80055AA550A05050A050A05000000FF000057
:103CE800000000000F000000202020FF000000005E
:103CF80000000F000000505050FF000000000000BE
:103D08000F0000002020FF00FF000000000F000F40
:103D180000002020E020E0000000000F000F00005D
:103D2800505050F00000000000000F0000005050FC
:103D3800DF00FF000000000F000F00000000FF0080
:103D4800FF000000000F000F00005050D010F000DE
:103D58000000000F000F000050505F407F0000007F
:103D680000000000000020203F203F00000000006D
:103D7800000000005050507F0000000000000000CC
:103D88000000202020E00000000000000F000000DC
:103D98000000003F2020200000000000000020203C
:103DA800203F20202000000000000000202020E00C
:103DB8002020200000000F000000000000FF20204D
:103DC800200000000F0000002020202020202000DC
:103DD800000000000000202020FF2020200000001C
:103DE8000F000000000000FF5050500000000F00BE
:103DF80000000000FF00FF202000000F000F00005F
:103E080000007F405F5050000000000000000000EC
:103E1800F010D0505000000F000F000050505F40CD
:103E28005F5050000000000000005050D010D050EB
:103E38005000000F000F00000000FF00DF5050008E
:103E4800000F000F0000505050505050500000001C
:103E5800000000005050DF00DF505000000F000F3E
:103E680000005050505F505050000000000000000B
:103E780020203F203F20200000000000000050507C
:103E880050D05050500000000F0000002020E020CB
:103E9800E0202000000F000F000000003F203F201E
:103EA80020000000000000000000007F505050007B
:103EB800000000000000000000F05050500000001A
:103EC8000F0000000000E020E0202000000F000F9D
:103ED80000002020FF00FF202000000F000F00003E
:103EE80000FFFF12130300000101010101005050FF
:103EF80050DF5050500000000F0000002020203FED
:103F080000000000000000000000000000E0202089
:103F1800200000000F000000FFFFFFFFFFFFFF0F62
:103F28000F0F0F0F0F0FC0C0C0C0C0C0C00F0F0FC2
:103F38000F0F0F0FFFFFFFFF0000000F0F0F0F0005
:103F4800000000000000FFFFFF000000000F0F0F3F
:103F58003F3F3F3F3F3F3F0000000000000000FEA2
:103F6800FF119382000000010101000000F0F82811
:103F780028089000000101010100000101FCFC017A
:103F8800010000010101010000030BF8FB03000020
:103F980000010101010000788430308478000000BD
:103FA800000000000078FA84FA7800000406030193
:103FB8000000000E1F111F0E00000000000000008E
:103FC80000F3FB283BB300000001010100000000E2
:103FD800387C7C3800000000000000000000003041
:103FE8003000000000000000000000408000FE02D9
:103FF8000200000001010000FFFF1CFFFF2727014E
:1040080001000101000074880404887400010001A3
:1040180001000100000078787878000000000000B6
:104028000000000000000000000000000000000088
:1040380000FCFE23FEFC000001010001010000FF5E
:10404800FF11F1E1000001010101000000FFFF1173
:10405800FFEE000001010101000000FFFF01010166
:10406800000001010000000000FEFF01FFFF000347
:1040780003010101030300FFFF1111010000010109
:104088000101010000EF10FFFF10EF000100010126
:10409800000100821111FFEE000000010101000083
:1040A80000FFFF701CFFFF0001010000010100FF7D
:1040B800FF711DFFFF0001010000010100FFFF3833
:1040C800EFC7000001010001010000FEFF01FFFF32
:1040D8000000010100010100FFFF1C701CFFFF012F
:1040E80001000000010100FFFF10FFFF00000101B7
:1040F8000001010000FEFF01FFFE000000010101B8
:10410800000000FFFF01FFFF0000010100010100A6
:1041180000FFFF111F0E000001010000000000FE5B
:10412800FF01C7C60000000101010000000101FFF6
:10413800FF010100000001010000008F9F10FFFF38
:104148000000000101010000003C42FFFF423C006A
:1041580000000101000000C7EF38EFC700000101AF
:104168000001010000FFFF00FFFF00000101010145
:104178000303000F1F10FFFF0000000000010100F3
:10418800FFFF00FF00FFFF01010101010101FFFF27
:1041980000FF00FFFF010101010103030701FFFF09
:1041A80010F0E000000101010100FFFF10F0E0FF46
:1041B800FF0101010100010100FFFF10F0E0000014
:1041C80001010101000000829311FFFE00000001BF
:1041D80001010000FFFF18FF01FFFE0101000101BE
:1041E800010000EEFF11FFFF0000010100010100C6
:1041F80000C0E828F8F0000000010101010000F00B
:10420800F828E8C4000000010101000000F8F828BF
:10421800F8D0000001010101000000F8F8080808C2
:10422800000001010000000000F0F808F8F80003A1
:1042380003010101030300F0F82838B00000000171
:104248000101000000D820F8F820D8000100010181
:10425800000100900828F8D00000000101010000CA
:1042680000F8F8C060F8F80001010000010100F84A
:10427800F8C066FBF80001010000010100F8F870C1
:10428800D888000001010001010000F0F808F8F8E2
:104298000000010100010100F8F8183018F8F801D1
:1042A80001000000010100F8F820F8F80000010101
:1042B8000001010000F0F808F8F000000001010119
:1042C800000000F8F808F8F80000010100010100FA
:1042D80000F8F808F8F0000007070101000000F0F6
:1042E800F80898900000000101010000000808F893
:1042F800F80808000000010100000078F880F8784C
:10430800000004060301000000F008F8F808F000B7
:104318000001070701000098F860F8980000010103
:104328000001010000F8F800F8F80000010101019F
:10433800030300387840F8F800000000000101008D
:10434800F8F800F800F8F801010101010101F8F896
:1043580000F800F8F8010101010103031818F8F842
:1043680020E0C000000101010100F8F820E0C0F8D9
:10437800F80101010100010100F8F820E0C0000087
:104388000101010100000090082828F8F000000150
:1043980001010100F8F860F808F8F00101000101D6
:1043A800010000B0F848F8F8000001010001010020
:0C020C00202200202F300020A835000820
:1043B8000A00000007000000FF0000004030002055
:1043C800000000000000000000000000000078A4C9
