:020000040800F2
:10000000008000206D010008AF010008B101000868
:10001000B3010008B5010008B701000800000000A6
:10002000000000000000000000000000B90100080E
:10003000BB01000800000000BD010008BF0100086E
:10004000C1010008C3010008C5010008000000004C
:1000500000000000C7010008C9010008CB0100082A
:10006000CD01000800000000CF010008D101000808
:10007000D301000800000000D5010008D7010008E6
:10008000D9010008DB01000800000000DD010008C4
:10009000DF01000800000000000000000000000078
:1000A000000000000000000000000000E101000866
:1000B000E3010008E5010008E7010008E901000884
:1000C0001B4BDA68DB6803F001031A491A4A002B5C
:1000D0000CBF13460B46164AD26812F0040F05D027
:1000E000134A5268C2F3032202FB0333104AD26858
:1000F000C2F30122012A07D012B1022A0ED012E067
:100100000D4A0E4B1A607047094AD268C2F30312B7
:100110000132B3FBF2F3094A136070474FF4004217
:10012000064B1A60704749F64042044B1A6070470C
:100130000000024000093D0000127A00000000208B
:1001400008B5084B084ADA61DA680022DA605968B3
:100150005A6099689A6019691A6159695A61FFF77A
:10016000AFFF08BD00000240100000080649074A22
:10017000074B00F015F80749074A084B00F010F844
:10018000FFF7DEFF00F032F86C02000800000020EC
:100190000400002070020008040000200400002079
:1001A0009B1A03DD043BC858D050FBDC7047FEE7C8
:1001B000FEE7FEE7FEE7FEE7FEE7FEE7FEE7FEE717
:1001C000FEE7FEE7FEE7FEE7FEE7FEE7FEE7FEE707
:1001D000FEE7FEE7FEE7FEE7FEE7FEE7FEE7FEE7F7
:1001E000FEE7FEE7FEE7FEE7FEE700BF00F01AF8D5
:1001F0004FF480020A4BDA6103F5102301225A60A2
:1002000000229A604FF6FF71D9604FF48031196176
:100210006FF0010159614FF055319961DA61704712
:100220000000024008B5FFF7E3FF0E4A42F21074E7
:100230000D4821462546136823F001031360234629
:10024000013B9BB2002BFBD105E0013B9BB2002B95
:10025000FBD10180EFE70180136843F001031360D5
:0C0260002B46F2E700000B4004000020D9
:04026C0000127A0002
:040000050800016D81
:00000001FF
