:020000040800F2
:1000000000800020F90200083B0300083D030008BF
:100010003F030008410300084303000800000000FC
:100020000000000000000000000000004503000880
:100030004703000800000000490300084B030008C4
:100040004D0300084F0300085103000800000000A2
:100050000000000053030008550300085703000880
:1000600059030008000000005B0300085D0300085E
:100070005F0300080000000061030008630300083C
:10008000650300086703000800000000690300081A
:100090006B030008000000000000000000000000EA
:1000A0000000000000000000000000006D030008D8
:1000B0006F0300087103000873030008750300084C
:1000C00008B54FF40070012100F04AF840F2012019
:1000D000012100F045F840F20220012100F040F833
:1000E00040F20320012100F03BF808BD08B54FF4B1
:1000F0000070012100F058F800F09AF840F2012059
:10010000012100F051F800F093F840F202200121A3
:1001100000F04AF800F08CF840F20320012100F0D2
:1001200043F800F085F84FF40070002100F03CF82F
:1001300000F07EF840F20120002100F035F800F0D8
:1001400077F840F20220002100F02EF800F070F85D
:1001500040F20320002100F027F800F069F808BD04
:1001600038B504460D46C0F3072000F03FF8012DD6
:1001700019D1426864B2012303FA04F52A434260AC
:10018000826800228260C1682943C160016941EA36
:10019000054101614169426181699C40A3400B4373
:1001A0008361C369C26138BD38B504460D46C0F3EA
:1001B000072000F01BF8E4B2012D06D1026864B2FA
:1001C0000123A3401343036038BD35B9026864B20C
:1001D0000123A34022EA0303036038BD4FF0FC6211
:1001E000014BDA61704700BF00000240013805286A
:1001F0000CD8DFE800F00C030E050709064870472D
:1002000006487047064870470648704770470648DA
:1002100070470648704700BF00000B4000000C40CC
:1002200000800C4000800E4000800A4000800B409F
:100230000A224EF6602106E0013B9BB2002BFBD167
:10024000013A92B20AB10B46F6E770471B4BDA68E7
:10025000DB6803F001031A491A4A002B0CBF13464E
:100260000B46164AD26812F0040F05D0134A5268A2
:10027000C2F3032202FB0333104AD268C2F3012205
:10028000012A07D012B1022A0ED012E00D4A0E4BFD
:100290001A607047094AD268C2F303120132B3FBF5
:1002A000F2F3094A136070474FF40042064B1A609C
:1002B000704749F64042044B1A6070470000024004
:1002C00000093D0000127A000000002008B5084B2C
:1002D000084ADA61DA680022DA6059685A60996877
:1002E0009A6019691A6159695A61FFF7AFFF08BD31
:1002F00000000240100000080649074A074B00F0C2
:1003000015F80749074A084B00F010F8FFF7DEFF21
:1003100000F032F8880300080000002004000020EC
:100320008C03000804000020040000209B1A03DD59
:10033000043BC858D050FBDC7047FEE7FEE7FEE701
:10034000FEE7FEE7FEE7FEE7FEE7FEE7FEE7FEE785
:10035000FEE7FEE7FEE7FEE7FEE7FEE7FEE7FEE775
:10036000FEE7FEE7FEE7FEE7FEE7FEE7FEE7FEE765
:10037000FEE7FEE7FEE700BF08B5FFF72FFFFFF738
:080380009FFEFFF7B3FEFCE74E
:0403880000127A00E5
:04000005080002F9F4
:00000001FF
