:020000040800F2
:100000000080002069020008AB020008AD02000871
:10001000AF020008B1020008B302000800000000AF
:10002000000000000000000000000000B502000811
:10003000B702000800000000B9020008BB02000877
:10004000BD020008BF020008C10200080000000055
:1000500000000000C3020008C5020008C702000833
:10006000C902000800000000CB020008CD02000811
:10007000CF02000800000000D1020008D3020008EF
:10008000D5020008D702000800000000D9020008CD
:10009000DB0200080000000000000000000000007B
:1000A000000000000000000000000000DD02000869
:1000B000DF020008E1020008E3020008E502000890
:1000C00008B54FF40070012100F012F840F2012051
:1000D000012100F00DF840F20220012100F008F8A3
:1000E00040F20320012100F003F808BD704700BF73
:1000F00038B504460D46C0F3072000F03DF8012D49
:1001000019D1426864B2012303FA04F52A4342601C
:10011000826800228260C1682943C160016941EAA6
:10012000054101614169426181699C40A3400B43E3
:100130008361C369C26138BD0D4B4FF0FC62DA6167
:10014000DA6942F48042DA614FF080725A6203F554
:10015000A02340F2E7325A6001229A600221996599
:10016000DA604FF48042034B1A6062B6704700BFFA
:100170000000024000E100E0013805280CD8DFE86B
:1001800000F00C030E050709064870470648704743
:10019000064870470648704770470648704706484B
:1001A000704700BF00000B4000000C4000800C4076
:1001B00000800E4000800A4000800B401B4BDA6834
:1001C000DB6803F001031A491A4A002B0CBF1346DF
:1001D0000B46164AD26812F0040F05D0134A526833
:1001E000C2F3032202FB0333104AD268C2F3012296
:1001F000012A07D012B1022A0ED012E00D4A0E4B8E
:100200001A607047094AD268C2F303120132B3FB85
:10021000F2F3094A136070474FF40042064B1A602C
:10022000704749F64042044B1A6070470000024094
:1002300000093D0000127A000000002008B5084BBC
:10024000084ADA61DA680022DA6059685A60996807
:100250009A6019691A6159695A61FFF7AFFF08BDC1
:1002600000000240100000080649074A074B00F052
:1002700015F80749074A084B00F010F8FFF7DEFFB2
:1002800000F032F8F802000800000020040000200E
:10029000FC02000804000020040000209B1A03DD7B
:1002A000043BC858D050FBDC7047FEE7FEE7FEE792
:1002B000FEE7FEE7FEE7FEE7FEE7FEE7FEE7FEE716
:1002C000FEE7FEE7FEE7FEE7FEE7FEE7FEE7FEE706
:1002D000FEE7FEE7FEE7FEE7FEE7FEE7FEE7FEE7F6
:1002E000FEE7FEE7FEE700BF08B5FFF725FFFFF7D3
:0802F000E7FEFFF7FBFEFCE74F
:0402F80000127A0076
:040000050800026984
:00000001FF
