:020000040800F2
:10000000008000207D020008BF020008C102000835
:10001000C3020008C5020008C70200080000000073
:10002000000000000000000000000000C9020008FD
:10003000CB02000800000000CD020008CF0200083B
:10004000D1020008D3020008D50200080000000019
:1000500000000000D7020008D9020008DB020008F7
:10006000DD02000800000000DF020008E1020008D5
:10007000E302000800000000E5020008E7020008B3
:10008000E9020008EB02000800000000ED02000891
:10009000EF02000800000000000000000000000067
:1000A000000000000000000000000000F102000855
:1000B000F3020008F5020008F7020008F902000840
:1000C00008B54FF40070012100F022F808BD00BF10
:1000D00008B54EF660240D4D26464FF40070012100
:1000E00000F03AF82346013B9BB2002BFBD105E020
:1000F000013B9BB2002BFBD12C80EEE72C804FF410
:100100000070002100F028F83346F1E704000020D9
:1001100038B504460D46C0F3072000F037F8012D2E
:1001200019D1426864B2012303FA04F52A434260FC
:10013000826800228260C1682943C160016941EA86
:10014000054101614169426181699C40A3400B43C3
:100150008361C369C26138BD38B504460D46C0F33A
:10016000072000F013F8E4B2012D06D1026864B252
:100170000123A3401343036038BD35B9026864B25C
:100180000123A34022EA0303036038BD0138052898
:100190000CD8DFE800F00C030E050709064870478D
:1001A000064870470648704706487047704706483B
:1001B00070470648704700BF00000B4000000C402D
:1001C00000800C4000800E4000800A4000800B4000
:1001D0001B4BDA68DB6803F001031A491A4A002B4B
:1001E0000CBF13460B46164AD26812F0040F05D016
:1001F000134A5268C2F3032202FB0333104AD26847
:10020000C2F30122012A07D012B1022A0ED012E055
:100210000D4A0E4B1A607047094AD268C2F30312A6
:100220000132B3FBF2F3094A136070474FF4004206
:10023000064B1A60704749F64042044B1A607047FB
:100240000000024000093D0000127A00000000207A
:1002500008B5084B084ADA61DA680022DA605968A2
:100260005A6099689A6019691A6159695A61FFF769
:10027000AFFF08BD00000240100000080649074A11
:10028000074B00F015F80749074A084B00F010F833
:10029000FFF7DEFF00F032F808030008000000203E
:1002A000040000200C0300080400002004000020CB
:1002B0009B1A03DD043BC858D050FBDC7047FEE7B7
:1002C000FEE7FEE7FEE7FEE7FEE7FEE7FEE7FEE706
:1002D000FEE7FEE7FEE7FEE7FEE7FEE7FEE7FEE7F6
:1002E000FEE7FEE7FEE7FEE7FEE7FEE7FEE7FEE7E6
:1002F000FEE7FEE7FEE7FEE7FEE700BF08B5FFF713
:08030000DFFEFFF7E5FEFCE75C
:0403080000127A0065
:040000050800027D70
:00000001FF
