:020000040800F2
:10000000780600205D01000865010008670100080E
:10001000690100086B0100086D0100080000000084
:100020000000000000000000000000006F01000858
:10003000710100080000000073010008750100084C
:100040007701000877010008770100080000000030
:100050000000000077010008770100087701000820
:100060007701000800000000770100087701000810
:10007000770100080000000049020008770100082D
:1000800077010008770100080000000077010008F0
:1000900077010008000000000000000000000000E0
:1000A00000000000000000000000000077010008D0
:1000B0007701000877010008770100087701000840
:1000C00000F002F800F03AF80AA090E8000C824430
:1000D0008344AAF10107DA4501D100F02FF8AFF20D
:1000E000090EBAE80F0013F0010F18BFFB1A43F016
:1000F000010318476403000084030000103A24BF82
:1001000078C878C1FAD8520724BF30C830C144BF7C
:1001100004680C60704700000023002400250026BE
:10012000103A28BF78C1FBD8520728BF30C148BF5A
:100130000B6070471FB51FBD10B510BD00F055F91D
:100140001146FFF7F7FF00F0ACF800F073F903B4C5
:10015000FFF7F2FF03BC00F077F900000948804781
:1001600009480047FEE7FEE7FEE7FEE7FEE7FEE799
:10017000FEE7FEE7FEE7FEE704480549054A064BB1
:10018000704700009F030008C100000878000020AD
:100190007806002078020020780200204FF03070AE
:1001A0005449C8610F2054494860002088604FF6C8
:1001B000FF70C8604FF4DE0008616FF00F00486107
:1001C0004FF0553088610020C8614C494860886014
:1001D0004FF6FF70C8604FF48020086148614FF00F
:1001E000553088610020C8614549486088604FF6F5
:1001F000FF70C8604FF420204049086148614FF00B
:1002000055303F4988610020C86170473948C0694E
:1002100040F480403749C8613A4848623F203A4933
:10022000486040F2CF308860022088650120C860B5
:100230000E200121814042094FF0E02303EB8202AE
:10024000C2F8001100BF704730480068401C2F49B9
:10025000086008460068022801D1002008602B4889
:100260000068C0EB0040244908600020086026496F
:1002700008600846406D20F0020048650E2001210C
:100280008140234A430942F8231000BF70470021F0
:1002900004E000BF00BF00BF00BF491C8142F8D38B
:1002A0007047FFF77BFFFFF7B1FF21E0002300BF9E
:1002B0000BE011480068174951F8231008430E4914
:1002C00008601548FFF7E3FF5B1C042BF1DB0023FC
:1002D0000BE0094800680F4951F82310884306498C
:1002E00008600D48FFF7D3FF5B1C042BF1DB00BF58
:1002F000DCE700000000024000000B4000800B40E3
:1003000000800C40050000010000074000000020B4
:1003100080E200E004000020A086010030B52D4CF2
:10032000E46804F00204022C01D12B4800E02A48C2
:10033000284CE46814F0010F00D040080146254C19
:10034000E46804F00404042C05D1224C6468C4F36E
:100350000324631C59431F4CE468C4F3012424B1F3
:10036000012C06D0022C13D10DE01B4C1B4D2C6030
:1003700013E0184CE468C4F30314641CB1FBF4F2FA
:10038000164C226009E04FF40044144D2C6004E048
:1003900049F64044114D2C6000BF00BF30BD00B590
:1003A0000F480C49C8610846C0680020C86008466C
:1003B0004068002048600846806800208860084641
:1003C0000069002008610846406900204861FFF785
:1003D000A5FF00BD0000024000127A0014000020BA
:1003E00010000008704770477047754600F028F805
:1003F000AE4605006946534620F00700854618B012
:1004000020B5FFF7B9FEBDE820404FF000064FF0E1
:1004100000074FF000084FF0000B21F00701AC4639
:10042000ACE8C009ACE8C009ACE8C009ACE8C00958
:100430008D4670470446AFF300802046FFF787FEE5
:10044000004870471800002001491820ABBEFEE7A5
:100450002600020070470000780400080000002019
:1004600018000000FC00000890040008180000209C
:1004700060060000180100080000000008000000ED
:1004800004000000020000000100000000127A00D9
:040000050800015D91
:00000001FF
