:020000040800F2
:10000000780600205D01000865010008670100080E
:10001000690100086B0100086D0100080000000084
:100020000000000000000000000000006F01000858
:10003000710100080000000073010008750100084C
:100040007701000877010008770100080000000030
:100050000000000077010008770100087701000820
:100060007701000800000000770100087701000810
:100070007701000800000000450200087701000831
:1000800077010008770100080000000077010008F0
:1000900077010008000000000000000000000000E0
:1000A00000000000000000000000000077010008D0
:1000B0007701000877010008770100087701000840
:1000C00000F002F800F03AF80AA090E8000C824430
:1000D0008344AAF10107DA4501D100F02FF8AFF20D
:1000E000090EBAE80F0013F0010F18BFFB1A43F016
:1000F000010318471003000030030000103A24BF2A
:1001000078C878C1FAD8520724BF30C830C144BF7C
:1001100004680C60704700000023002400250026BE
:10012000103A28BF78C1FBD8520728BF30C148BF5A
:100130000B6070471FB51FBD10B510BD00F02BF947
:100140001146FFF7F7FF00F0A7F800F049F903B4F4
:10015000FFF7F2FF03BC00F04DF9000009488047AB
:1001600009480047FEE7FEE7FEE7FEE7FEE7FEE799
:10017000FEE7FEE7FEE7FEE704480549054A064BB1
:10018000704700004B030008C10000087800002001
:100190007806002078020020780200204FF03070AE
:1001A0004149C8610F2041494860002088604FF6EE
:1001B000FF70C8604FF4DE0008616FF00F00486107
:1001C0004FF0553088610020C86139494860886027
:1001D0004FF6FF70C8604FF48020086148614FF00F
:1001E000553088610020C8613249486088604FF608
:1001F000FF70C8604FF42020086148614FF055300F
:1002000088610020C86170472748C06940F4804079
:100210002549C861284848623F202849486040F283
:10022000CF308860022088650120C8600E2001213F
:10023000814042094FF0E02303EB8202C2F8001133
:1002400000BF70471E480068401C1D4908600846F2
:100250000068022801D1002008604FF6FF701349A2
:1002600008600020154908600846406D20F0020033
:1002700048650E2001218140124A430942F82310AB
:1002800000BF7047002104E000BF00BF00BF00BFF7
:10029000491C8142F8D37047FFF780FFFFF7B4FF96
:1002A00062B600BFFEE700000000024000000B4005
:1002B00000800B4000800C4005000001000007405A
:1002C0000000002080E200E030B52D4CE46804F02E
:1002D0000204022C01D12B4800E02A48284CE46893
:1002E00014F0010F00D040080146254CE46804F0EA
:1002F0000404042C05D1224C6468C4F30324631C59
:1003000059431F4CE468C4F3012424B1012C06D0E6
:10031000022C13D10DE01B4C1B4D2C6013E0184C2C
:10032000E468C4F30314641CB1FBF4F2164C2260BD
:1003300009E04FF40044144D2C6004E049F64044B9
:10034000114D2C6000BF00BF30BD00B50F480C49F7
:10035000C8610846C0680020C860084640680020A0
:1003600048600846806800208860084600690020D0
:1003700008610846406900204861FFF7A5FF00BDFD
:100380000000024000127A00140000201000000853
:10039000704770477047754600F028F8AE46050074
:1003A0006946534620F00700854618B020B5FFF790
:1003B000E3FEBDE820404FF000064FF000074FF08D
:1003C00000084FF0000B21F00701AC46ACE8C00973
:1003D000ACE8C009ACE8C009ACE8C0098D4670477C
:1003E0000446AFF300802046FFF7B1FE0048704797
:1003F0001800002001491820ABBEFEE726000200CD
:1004000070470000240400080000002018000000CD
:10041000FC0000083C0400081800002060060000F2
:10042000180100080000000008000000040000009F
:0C043000020000000100000000127A0031
:040000050800015D91
:00000001FF
