:020000042000DA
:10780000907D002009780020054800474FF0006077
:1078100004490860016881F3088840680047000057
:107820000D7B002008ED00E000BF401C801E0028FA
:10783000FBD1704700BFD7490988C1F34011002927
:10784000F9D1D5490880704700BFD2480088C0F3FD
:1078500000100028F9D1D1480088C0B2704710B597
:10786000002300210BE0FFF7EFFF0246CC48007831
:107870001044CB4C20701B0A12061344491C0429E7
:10788000F1D3184610BD00B50246002304E0D0B283
:10789000FFF7D0FF120A5B1C042BF8DB00BD00B51C
:1078A000C048C14908610846006840F0010008600E
:1078B0000846006820F4E0700860002220E0BB4821
:1078C0000068B9494860B9480068001DB7490860B8
:1078D000B548006840F4E070B34908600120FFF744
:1078E000A3FFB148C068B24941F82200AE48006821
:1078F00020F4E070AC4908600120FFF795FF521CAE
:10790000402ADCDBA848006820F00100A649086096
:1079100000BD10B5A74804680CB9FFF7C0FFA44923
:1079200051F82400FFF7AFFF641CA14951F824006F
:10793000FFF7A9FF641C04F03F009E49086010BDDA
:1079400030B5002096490870002405E0FFF787FF56
:10795000974941F82400641C402CF7D39148924980
:1079600008610846006840F00100086008460068A9
:1079700020F47750086000244BE08C4800682044D5
:10798000894948600846006840F482500860062033
:10799000FFF74AFF8448006840F4005082490860BD
:1079A0000B20FFF741FF00251EE0804800682844B7
:1079B00020447D494860601980087D4951F82000C5
:1079C000794988600846006840F0800008603220ED
:1079D000FFF72AFF7448006820F0800072490860B1
:1079E0000120FFF721FF1035FF2DDED96E4800681A
:1079F00020F480506C4908600620FFF715FF6A48A4
:107A0000006820F40150684908600120FFF70CFF6E
:107A1000241D102CB1D36448006820F00100624995
:107A200008606248006800F58070604908605C4842
:107A30000078FFF7FFFE30BD30B55A485A4908615B
:107A40000846006840F00100086000242DE004F1C1
:107A50000060554948600846006820F437500860C7
:107A60000846006840F4446008600620FFF7DCFE2A
:107A70004D48006840F400504B4908604CF25030CB
:107A8000FFF7D2FE4848006820F48060464908604D
:107A90006E20FFF7C9FE4448006820F42150424997
:107AA00008600220FFF7C0FE241D102CCFD34FF03A
:107AB000006417E03C484460006840F4E0703A49D4
:107AC00008600120FFF7B0FE3748C568006820F461
:107AD000E070354908600120FFF7A6FE681C00D061
:107AE00003E0241D34488442E4D300BF2E480068DC
:107AF00020F001002C4908604520FFF79BFE20463E
:107B0000FFF7C1FE2846FFF7BEFE30BD10B50120CD
:107B10002A49C8603DE0FFF797FE0446502C19D073
:107B200006DC412C1CD0452C11D0492C30D104E06E
:107B3000522C24D0562C2BD10FE0002404E02049F5
:107B4000085DFFF777FE641C0C2CF8DB20E0FFF7E4
:107B500073FF1DE0FFF7F4FE1AE0FFF7DAFE17E00F
:107B600000200F490870FFF77AFE104908600020D6
:107B7000104908600A480078FFF75CFE08E05220D0
:107B8000FFF758FEC820FFF74FFEFFF73FFE00BF8C
:107B900000BFC0E71880034000800340008003401E
:107BA000087C00205155AA8A00800140007C0020FA
:107BB0000C7C0020047C002000000208800340426E
:107BC000C47B002031393836424F4F54554152540E
:0C7BD000000000000000000000000000A9
:0400000500000000F7
:00000001FF
